:020000040800F2
:100000009008002061020008E939000885390008DD
:10001000E5390008192600085148000800000000D2
:10002000000000000000000000000000F13900089E
:100030001D26000800000000ED390008F539000811
:100040007B0200087B0200087B0200087B0200089C
:100050007B0200087B0200087B0200087B0200088C
:100060007B0200087B0200087B0200087B0200087C
:100070007B0200087B0200087B0200087B0200086C
:100080007B0200087B0200087B0200087B0200085C
:100090007B0200087B0200087B0200087B0200084C
:1000A0007B0200087B0200087B0200087B0200083C
:1000B0007B0200087B0200087B0200087B0200082C
:1000C0007B0200087B0200087B0200087B0200081C
:1000D0007B020008454800087B0200087B020008FC
:1000E0007B0200087B0200087B02000800F002F897
:1000F00000F0A6F814A696E8000CB244B344DA4522
:1001000001D100F09DF8BAE80F000FA696E8300084
:10011000A5EB040504EB0607AAEB0704A7F101070A
:100120004FEA15154FEA3414A4F10104AC4201D38F
:1001300000F086F813F0010F18BFFB1A43F001031B
:1001400000F001F8DBE718471853000038530000AF
:10015000103A24BF78C878C1FAD8520724BF30C8F3
:1001600030C144BF04680C60704700007047000055
:100170000023002400250026103A28BF78C1FBD8B0
:10018000520728BF30C148BF0B6070476E2900F08E
:100190000E83702900F05384662905F05D8065297F
:1001A00005F05A80672905F05780612905F05680CF
:1001B00003681B0A28BF41F08001692900F0AE8066
:1001C000642900F0AB80752900F0A8806F2900F049
:1001D000E183782900F01F84E92900F07B83E4297A
:1001E00000F07883F52900F07583EF2900F0DE83B5
:1001F000F82900F01E840368DB0928BF41F0800164
:10020000632901F05B80732901F06080E32901F02C
:100210006B80F32901F07080002070471FB500F05B
:100220006DFC04000020002104F0EAFF401C606027
:100230000020002104F0FAFFE0601FBD10B510BDE2
:1002400001F090F81146FFF7E9FF04F003FB01F01D
:1002500061F903B4FFF7F2FF03BC01F0A5F9000058
:100260000948804709480047FEE7FEE7FEE7FEE74A
:10027000FEE7FEE7FEE7FEE7FEE7FEE70448054986
:10028000054A064B70470000F9390008ED000008E8
:10029000900200209008002090040020900400208C
:1002A0007CB51D4616460C00009007D04142A14285
:1002B00002D32044401E01E04FF0FF30064B7B4448
:1002C0002A4669460190304600F08BFA002C02D095
:1002D000009A002111707CBD470500000FB41CB5C9
:1002E0000C0007AA009007D04142A14202D320444B
:1002F000401E01E04FF0FF30074B7B446946019000
:10030000069800F06EFA0021002C01D0009A1170BE
:100310001CBC5DF814FB00000B0500002DE9F0414A
:100320000646002410687529314616A510D000F045
:10033000AAF9002802DA404213A507E031688A07CB
:1003400001D512A502E0490704D511A5012401E059
:1003500000F0A2F900210A2206F1240709E0B0FB0F
:10036000F2FCB0FBF2F302FB1C003030785418466C
:10037000491C0028F3D123462A463046BDE8F04107
:1003800000F0BCB9000000002D0000002B000000B0
:10039000200000002DE9F05F894604464FF0000A76
:1003A000DFF874B1FB44C0F820A02046E16888471C
:1003B000002874D0252806D0D4E901219047206A6E
:1003C000401C2062F1E700265F462046E16888472E
:1003D0002028054607DB312D05D2781910F8200CAE
:1003E00008B10643F1E7B00701D526F00406C4F8CA
:1003F0001CA00027C4F818A02A2D09D0284604F014
:10040000F7FE38B304EB8708303DC8F8185019E000
:1004100059F8041B204604EB87029161E168884784
:10042000012F054618D1E069002820DA26F02006C1
:100430001DE0D8F8180000EB800005EB40003038D4
:10044000C8F818002046E1688847054604F0D0FE49
:100450000028EED1012F0AD02E2D08D12046E168C8
:1004600088477F1C0546022F46F02006C4DBA069A2
:10047000002803DA404246F00106A061F00701D0EF
:1004800026F010066C2D0BD0682D09D04C2D39D0DC
:100490006A2D35D0742D35D07A2D33D016E038E062
:1004A000E1682F4620468847B842054609D16C2F9F
:1004B00026D04FF48060E168064320468847054611
:1004C00004E06C2F1AD04FF4807006430DB3A5F1F1
:1004D0004100192802D8203546F400664A462946CC
:1004E000204626604E46FFF751FE80B101280BD012
:1004F000F61D26F0070000F1080956E74020E4E762
:100500008020D8E70020D6E706F104094DE7284609
:1005100052E7206ABDE8F09FB84E00002DE9F05F79
:1005200093460F4680460446002600F081F8D0F836
:100530000090824614F8015B2DB100F071F800685C
:10054000405DC007F6D12B2D02D02D2D1AD0641E90
:100550000021CAF800105A463946204600F07AFABF
:10056000014627B13868A04201D1C7F80080DAF807
:100570000000022809D0CAF80090700505D548424D
:10058000BDE8F09F46F48066E2E70846F8E710B55C
:10059000431C02E010F8011B71B18107FAD14FF042
:1005A000013202C88C1A8C4314EAC211F9D0C01A65
:1005B0000A0603D0C01E10BDC01A10BD0A0401D027
:1005C000801E10BD0902FCD0401E10BD4FF000027D
:1005D00000B5134694469646203922BFA0E80C5039
:1005E000A0E80C50B1F12001BFF4F7AF090728BF14
:1005F000A0E80C5048BF0CC05DF804EB890028BF90
:1006000040F8042B08BF704748BF20F8022B11F0B8
:10061000804F18BF00F8012B704770477047704734
:1006200010B500F06BFA001D10BD00BFD54B0000E7
:10063000004870471000002070B5044685690068C6
:10064000C10601D5302600E02026C00707D070BDC6
:10065000D4E9012130469047206A401C20626D1E7B
:10066000F6D570BD70B5044685690078C00707D11E
:1006700070BDD4E9012120209047206A401C2062EF
:100680006D1EF6D570BD09684A0501D540B27047A8
:10069000C905FCD500B2704709684A0501D5C0B24A
:1006A0007047C905FCD580B2704770B50C46054649
:1006B000012A05D02878800600D5EA69002302E0E7
:1006C000012305E05B1C934202D2E05C0028F9D1D3
:1006D000A869E618C01AA861286A18442862284642
:1006E000FFF7AAFF04E0D5E9012114F8010B9047B8
:1006F000B442F8D32846FFF7B5FF70BD2DE9F047A7
:100700000D4699469246044600F124080168880681
:1007100004D5E06921F01001216000E00120A84229
:1007200001DD471B00E00027A1697A1902EB0900EF
:10073000081AA0612078C00602D42046FFF77CFF8B
:10074000002608E0D4E901211AF806009047206A43
:10075000401C761C20624E45F4DB2078C0060AD58A
:100760002046FFF769FF06E0D4E9012130209047D9
:10077000206A401C2062381EA7F10107F4DC07E064
:10078000D4E9012118F805009047206A401C206236
:10079000281EA5F10105F3DC2046FFF763FF207852
:1007A000000602D50220BDE8F0870120FBE71168B2
:1007B0000268006A530501D508700AE0D30501D527
:1007C000088006E0130603D5C217C1E9000200E065
:1007D000086001207047000001694A1C0261087826
:1007E000704700B58FB0CDE9013100210591054971
:1007F0007944CDE9031011466846FFF7CBFD0FB0F1
:1008000000BD0000E5FFFFFFD1E900239A4202D2BC
:10081000531C0B60107070472DE9FF5F15468A4628
:100820000446DFF8AC80F8440027D8E900103E46C3
:10083000CDE9001010E03AF816106A4602A800F060
:100840006DFD411C07D02178890603D5E26939186E
:1008500091420DD80744761C2078800602D5E069C5
:10086000B84205DDAE42E6DB3AF816000028E2D1D8
:10087000A069C01BA0612046FFF7DEFED8E900108A
:10088000CDE90010002017E03AF818106A4602A8D7
:1008900000F044FDB0F1FF3F81460BD000250DF183
:1008A000080B05E0D4E901211BF8050090476D1CF9
:1008B0004D45F7D308F10100B0428046E4DB206AE1
:1008C000384420622046FFF7CDFEBDE8FF9F0000C0
:1008D0004A4A00002DE9F0418046D21D22F007026D
:1008E0000025D2E90002F52915A614D0011E72F1E7
:1008F000000106DA0023D0EB030063EB020211A62D
:1009000008E0D8F800108B0701D50FA602E04907D0
:1009100001D50EA601251146002408F1240704E0A4
:1009200000F0F0F830323A55641C50EA0102F7D179
:100930002B46324621464046BDE8F041FFF7DEBE79
:10094000000000002D0000002B000000200000002F
:1009500030B4002100F1240408E002F00705D208B9
:10096000303542EA4372DB086554491C52EA0305FC
:10097000F3D10468002310A2250708D504F0200451
:100980000C4304D0C46901230CA2641EC46130BCB2
:10099000FFF7B4BE10B5044621461068FFF77CFE91
:1009A00002462046BDE810400023D1E7D21D22F0C8
:1009B0000701D1E90023CBE7000000003000000070
:1009C000F0B40D460188090502D5214C7C4402E0B3
:1009D0001F4C7C440E34002100F1240608E002F094
:1009E0000F071209E75D42EA03721B097754491C9D
:1009F00052EA0307F3D102780023120704D5702DC1
:100A000006D009B1022311342246F0BCFFF776BEAE
:100A100001231034F8E770B504460D4621461068EE
:100A2000FFF73AFE024629462046BDE87040002303
:100A3000C6E7D21D22F00703D3E90023C0E703680D
:100A4000126843F0200303600823C3610023B7E763
:100A5000AC4800002DE9F05F824615468B46002722
:100A60000AF10104B9460078302801D09DB113E0A5
:100A700014F8010B0127782803D0582801D045B17C
:100A80000AE00DB1102D07D1002714F8010B102535
:100A900002E0082500E00A250026B0460EE005FB2E
:100AA000080005FB06F101271FFA80F801EB10464C
:100AB000B6F5803F00D3B94614F8010B294600F083
:100AC0001FFC0028EBDABBF1000F05D00FB1641E4C
:100AD00000E05446CBF80040B9F1000F06D0FFF714
:100AE000A7FD02210160C81EBDE8F09F48EA06404C
:100AF000FAE70000004870471000002000487047E7
:100B00003000002030B5B0F10A0271F100034FEA65
:100B1000900E4EEA817EB0EB0E0061EB91014FEA40
:100B2000101E4EEA017E10EB0E0041EB11114FEA50
:100B3000102E4EEA016E10EB0E0041EB11214FEA30
:100B4000104E4EEA014E10EB0E0041EB11414018E1
:100B500041F100014FEAD00040EA41704FEAD10173
:100B60004FEA810444EA907410EB800544EB0104E1
:100B70006D1944EB0404521BA3414FF0000348BF1E
:100B80000A3200D530BD401C41F1000130BD2DE9D5
:100B9000FF4F0C461E464FF0FF378BB0D2E90001E5
:100BA000DDF860800A908A46C1F30A5505B93D46D2
:100BB000002108464FF00000BAF1000F00F4400099
:100BC00005DA00EB80004FF4400101EA50004FEAE3
:100BD0009059B9F1010F00DDB9460A9850EA4A0070
:100BE0000ED044F61050A5F2FF3545432F14B8F14E
:100BF000000F1ED07542291E1EDDC9F100021CE047
:100C0000B8F1010F4FF0000001D0302103E0F243B2
:100C100005E02154401CB042FBDB3046002200219D
:100C200021540B99C1F80880C1E900200FB0BDE83C
:100C3000F08FBD1B6D1CDEE74A4600DA694206A84C
:100C400000F0F6FB06AB93E8070003AB83E8070070
:100C500050460A9903F0F0FE8DE80700A0F5005019
:100C60001F3800900398002D0ADD42F21F014A460A
:100C70000844002303A90390684604F059F909E0E9
:100C8000A0F500504A461F38002303A90390684688
:100C900004F063F98DE807000004000C03D04FF066
:100CA000FF30410800E01046B8F1000F03D00022E9
:100CB000009215461EE0751E05D4FFF723FF303263
:100CC00062556D1EF9D5B3460122084302D00022B9
:100CD0007F1C04E02078302801D100227F1E002AEA
:100CE000099784D01DE0112D07DAFFF70BFF303292
:100CF00062556D1C50EA0102F5D1084302D00098FC
:100D0000C8B10EE00021681E05E0235C625C6354FC
:100D10002254401E491C8142F7DBAB46A81B401EF3
:100D20000990002004F80B000B98099AC0F808807D
:100D3000C0E9002B7AE711264FF0000857E72DE9AC
:100D4000F04F88460446D21D22F0070191B0D1E948
:100D50000001CDE90A0104F037FA02460B98C00FF2
:100D600001D02D2007E02068810701D52B2002E06B
:100D7000202101EAC000032A099001D0072A05DBDF
:100D800003464146204600F013FB0BE12078800625
:100D900001D5E06900E00620B8F1650F814606D074
:100DA000B8F1660F18D0B8F1670F70D131E00020AC
:100DB000B9F1110F009001DB112301E009F10103EA
:100DC0000AAA01A90CA8FFF7E2FEDDE90C700026D3
:100DD00009F10105834647E001204B4600904FF0A2
:100DE00000470AAA01A90CA8FFF7D1FEDDE90DB062
:100DF0000C995D46002610B909F101000D18B9EBF8
:100E0000050003D4C0F1FF3609F10105A5EB090087
:100E10002BE0B9F1010F01DA4FF001090020B9F11F
:100E2000110F0090484601DD112300E003460AAA95
:100E300001A90CA8FFF7ABFEDDE90C704D460026BA
:100E40008346207800070AD4AB4500DA5D4601A846
:100E5000012D04DD411911F8011C302907D04F453F
:100E600002DA17F1040F04DA012082460FE06D1E4A
:100E7000EEE7002F02DCED1B3E4403E0781CA842A5
:100E800000DD7D1CB81B00F1010A4FF000472078FF
:100E9000000703D4AA4501DB4FF0FF3A0021B7F168
:100EA000004F0DF143088DF8431024D002202B236E
:100EB000002F01DA7F422D230A21021EA0F101003A
:100EC00000DC5FB197FBF1FC97FBF1F201FB1C7CAE
:100ED00017460CF1300C08F801CDEEE7A8F101003F
:100EE00003702188090501D5452100E06521A0F1A5
:100EF000010800F8011C09980FA9A1EB0807FF1DC4
:100F000000B10120411901EBEA70A1693844081AC7
:100F1000401EA0612078C00602D42046FFF78CFB5B
:100F2000099828B1D4E901219047206A401C206229
:100F30002078C00622D52046FFF77EFB1EE0002E5B
:100F400004DBB34502DD01A8805D00E03020D4E978
:100F500001219047206A401C2062761CAAF1010002
:100F60005FEA000A0AD1FFF7C9FDC0680168405C6A
:100F7000D4E901219047206A401C2062281EA5F177
:100F80000105DCDC07E0D4E9012118F8010B9047EA
:100F9000206A401C2062381EA7F10107F3DC2046BE
:100FA000FFF760FB032011B041E600002DE9F04F90
:100FB00004460D46D21D22F0070089B0D0E9009703
:100FC0004846394604F000F90246F80F01D02D23B7
:100FD00007E02068810701D52B2302E0202101EAE8
:100FE000C0038DF820300BB1012000E00020032A5F
:100FF000824601D0072A04DB2946204600F0D8F9B2
:101000003FE12078800601D40D2500E0E569C7F3B3
:101010000A560D2D49DA00214FEA175B08464FF0BA
:101020000000002F00F4400007DA00EB80004FF4CE
:10103000400100EBD07001EA60008115012901DD5B
:101040004FF0FF3100224FEA850CBCF1180F06D398
:101050001346ACF118004FF08052C24003E04FF449
:10106000801323FA0CF30CF10C0CBCF1200F04D309
:10107000ACF1200C09FA0CF001E007FA0CF00029A1
:101080004FF0004801DD18B90FE00ED140450CD3F8
:1010900019EB02095F4121B9404502D19F4329EA7A
:1010A0000209BBEB175F00D0761C2088000502D533
:1010B0007B48784402E07A487844193808AA3023FB
:1010C00002F80A30037C0AF10101002E0AF1020A3B
:1010D00053546A4602DC4FF0300101E04FF0310119
:1010E0004FF001088DF8001002D0A6F2FF3603E0A1
:1010F00059EA470100D06B4E002D02DC2178090728
:1011000004D54FF002082E218DF80110C4460021AD
:101110000BE0C7F303433F01C35C491C6D1E02F89B
:101120000830052908F1010801DA002DF1DC002161
:101130000CE000EB1973491C1B786D1E082902F89E
:1011400008304FEA091908F1010801DA002DF0DC36
:1011500021688B0602D516E0A8F10108E04505DDFF
:1011600002EB080313F8013C302BF5D0B8F1000F67
:1011700009DD02EB080313F8013C2E2B03D109070C
:1011800001D4A8F10108002D05DD3E2102F8081068
:101190006D1E08F10108407C002E02F8080008F1DD
:1011A000010804DA2D20764202F8080002E02B2024
:1011B00002F808000A214FF47A70864208F101080B
:1011C0000BDB96FBF0F3303302F8083096FBF0F3BC
:1011D00008F1010800FB136601E0642E0CDB6420BB
:1011E00096FBF0F3303302F8083096FBF0F308F189
:1011F000010800FB136601E00A2E06DB96FBF1F006
:10120000303002F8080008F1010896FBF1F001FB0C
:101210001060303002F80800A16908F1010808EBFD
:10122000050202EB0A00081AA0612078C00602D469
:101230002046FFF701FA216A08AE01EB0A0020629E
:1012400004E0D4E9012116F8010B9047BAF1010A34
:10125000F7D22078C00602D52046FFF7EDF96E469A
:1012600009E016F8010B3E280FD0D4E90121904780
:10127000206A401C2062B8F10108F2D22046FFF734
:10128000F1F909B00320BDE8F08F206A28442062FC
:1012900003E0D4E90121302090476D1EEBD3F8E73D
:1012A0000142000002FCFFFF10B5436913B1AFF328
:1012B000008001E0FFF7F9F9012010BD127800F17C
:1012C00024010A7000224A700122EDE711684FF0F4
:1012D000FF32E9E710B5436913B1AFF3008001E0D5
:1012E000FFF79AFA012010BD128800F124018284D0
:1012F0000022C2840122EDE711684FF0FF32E9E7D6
:101300003A2800D2303820F02002412A01D3A2F13D
:101310003700884201D34FF0FF3070472DE9F0418C
:1013200016460C460546FFF77BF9036893F8010162
:10133000012807D0FF2C12D8185D80B101202C7035
:10134000BDE8F081D3F807013246214603F20713C6
:10135000C7182846BC46BDE8F041002360474FF05F
:10136000FF30EDE77546FFF7C5FBAE460500694661
:10137000534620F00700854618B020B5FEF77EFFE3
:10138000BDE820404FF000064FF000074FF0000886
:101390004FF0000BAC46ACE8C009ACE8C009ACE8C3
:1013A000C009ACE8C00921F007018D467047000074
:1013B0002DE9F0411F46044603260168072A01F47F
:1013C000006004DB08B116A505E016A503E008B12E
:1013D00015A500E015A521F010002060A069C01E31
:1013E000A0610FB1401EA0612046FFF725F94FB163
:1013F000D4E9012138469047206A401C2062C01C75
:10140000206206E0206AFAE7D4E9012115F8010B11
:101410009047761EF8D22046FFF724F9BDE8F08108
:101420004E414E006E616E00494E4600696E660088
:101430002DE9F047814616468AB0354878440DC8F4
:101440008DE80D0032487844801C03AC0DC884E858
:101450000D0041F69B300844372190FBF1F290FBE0
:10146000F1F5A5F1800501FB12041B3C02D5644295
:10147000012000E00020DFF898A080460027FA4411
:10148000AAF1BE0A0EE0E0070AD03246684607EB32
:10149000470101230AEB810103F05FFD8DE807009E
:1014A00064107F1C002CEED1194F7F44AE3F19E031
:1014B000E80715D007EB04100DF1180A90E80E00AC
:1014C0008AE80E00C068F04201D1981908903246AF
:1014D000012306A903A803F040FD03AB83E807003E
:1014E0006D10641C002DE3D14FF0010332466946B4
:1014F000B8F1000F03A802D003F01AFD01E003F0D9
:101500002CFDC9E90001C9F808200AB0BDE8F08740
:10151000083F000010B50446AFF300802046BDE848
:101520001040FEF796BE00004FF0013C50F8042B2F
:1015300051F8043B9A4221D1A2EB0C03934313EAE6
:10154000CC1317D150F8042B51F8043B9A4215D113
:10155000A2EB0C03934313EACC130BD150F8042BEA
:1015600051F8043B9A4209D1A2EB0C03934313EACE
:10157000CC13DBD04FF00000704700BFD01A01BA87
:10158000B1FA81F101F0180122FA01F0CB40DBB28F
:10159000C0B2C01AC1F120012CFA01F3D11A914353
:1015A00011EAC311E6D1704701491820ABBEFEE72E
:1015B0002600020070470000B0B5044600F076F93E
:1015C00000F0CAFF00F01CFB204602F031FA02F0E6
:1015D000C3FF40F60044C4F201042046102101F08C
:1015E000A7F940F27005C2F20005014605F10800B6
:1015F00002F0CAF92046202101F09AF9014605F1CE
:10160000140002F0C1F92046802101F091F9014651
:1016100005F1200002F0B8F92046402101F088F9D8
:10162000014605F12C0002F0AFF920464FF480711D
:1016300001F07EF9014605F1380002F0A5F92046D7
:101640004FF4007101F074F9014605F1440002F015
:101650009BF901F079F9286001F076F96860B0BD76
:101660002DE9F04381B000F0A5FF40F60045C4F23B
:1016700001052846102101F05BF940F27009C2F221
:10168000000909F1080401462046002202F08CF905
:101690002846202101F04CF9014609F114000022EE
:1016A00002F082F92846802101F042F9014609F151
:1016B0002000002202F078F92846402101F038F994
:1016C000014609F12C00002202F06EF928464FF481
:1016D000807101F02DF9014609F13800002202F075
:1016E00063F928464FF4007101F022F9014609F12F
:1016F0004400002202F058F999F8100030B9204651
:10170000002102F04BF9002800F08A8000F060FA16
:10171000022809D101F018F9D9F80410401AB0F5DF
:101720007A7F04D20AE000BF0A2000F0EDFD0F200E
:1017300000F010F901F008F9C9F8040002F08AF984
:1017400000F004FB0DF1010000F0E4FA002843D0A2
:1017500045F2943545F28A370DF10104C0F60005D3
:101760000FF23418C0F6000749A604E0204600F046
:10177000D1FA002830D09DF8010001380528F5D8AD
:10178000DFE800F00C1C0416122200BF9DF80200D6
:101790009DF8031002F08EFFE8E700BF9DF80200FD
:1017A00002F06CFFE2E700BF9DF8021028460EE051
:1017B0009DF80210284642460AE000BF9DF802004C
:1017C00002F06AFFD2E700BF9DF8021030463A46A9
:1017D00002F09EFFCAE700BF00F0E8F801F0B4F89D
:1017E000D9F80010401AB0F57A7F15D301F0ACF8A3
:1017F000C9F8000000F0ECF90446012804D100F01B
:10180000D1F9054601E000BF002500F0DBF90246F2
:101810002046294602F090FF01B0BDE8F08300BFEA
:1018200099F8400040B10B2000F06EFD012002F05D
:101830005DFF0B201AE000BF99F84C0040B10C206E
:1018400000F062FD022002F051FF0A200EE000BF0E
:1018500099F81C0020B100F043FA0E2006E000BF0A
:1018600099F8280030B100F0E3F90D2000F072F88B
:1018700064E700BF99F8340000283FF45FAF00F040
:1018800057FD00283FF45AAF02F0F2FE0C20EDE7BE
:1018900053544F50000000004E4F5F434152474F9A
:1018A0005F54494D454F55540000000040F600403C
:1018B000C4F201004FF47041002201F03FB8000073
:1018C0000138C0B21B2806D848F20F01C0F6BF315C
:1018D000C140C90702D10020704700BFB0B516A1B2
:1018E0000D5C40F60044C4F2010405F001022046FC
:1018F0004FF4004101F022F8C5F3400220464FF4B6
:10190000804101F01BF8C5F3800220464FF40051DE
:1019100001F014F8EA0820464FF4805101F00EF867
:1019200040F2C004C2F200040120207001F00CF863
:10193000014601206160B0BD0102040801010101FE
:10194000010101010101010F0E0D0C0B0A09010734
:1019500006050103B0B540F60045C4F20105044692
:1019600000F0010228464FF4004100F0E7FFC4F305
:10197000400228464FF4804100F0E0FFC4F38002AB
:1019800028464FF4005100F0D9FFC4F3C0022846A6
:101990004FF4805100F0D2FF40F2C004C2F20004C4
:1019A0000120207000F0D0FF6060B0BDB0B540F203
:1019B000C004C2F200042078012811D100F0C4FF55
:1019C0006168401AC82838BFB0BD40F60040C4F274
:1019D00001004FF470410022002500F0AFFF257098
:1019E000B0BD0000C11EC9B2FE293CBF0320704734
:1019F0002DE9F04140F2C805C2F20005A97802299C
:101A000004D10221BDE8F0410846704700EB800197
:101A100005EB810616F8201F002700294FF0010171
:101A20002F71EFD1C6E90277B7743760377104467A
:101A30004FF0010800F01EFD378286F80080B76085
:101A4000C6F8017000F080FFF060204685F8028043
:101A500000F010FD0021BDE8F0410846704700008D
:101A6000C21ED2B2FE2A3CBF03207047F0B581B03F
:101A700040F2C806C2F20006B278022A02D1022061
:101A800001B0F0BD32791AB1052001B0F0BD00BF40
:101A900000EB800206EB820717F8202F12B101201D
:101AA00001B0F0BD3A7C0D4662B3797C013903295F
:101AB00028D80446DFE801F0020E060A00F02CFDEB
:101AC0000AE000BF00F038FD06E000BF00F03CFD7A
:101AD00002E000BF00F028FD0028204612D0797CEB
:101AE0008B1E01F0FD0203F0FD03B3FA83F3012A1C
:101AF0004FEA531318BF5A00824203D151B3012851
:101B000009D01BE00446012812D100F005FD10B9F0
:101B100000F012FDF0B103203870FDB14FF44070B9
:101B2000BD74A7F80100002500F006FD29E000BF04
:101B300000F0FAFC10B900F007FD58B1032038702E
:101B4000B5B14FF48060BD74A7F80100002500F026
:101B5000FBFC16E0042001B0F0BD00BF0020B8740B
:101B60004FF48070A7F80100012500F0D5FC08E0D3
:101B70000020B8744FF40070A7F80100012500F0B0
:101B8000D3FCF87000203871B86000F0DDFEF8601A
:101B90000120B0702046294600F026FC002001B04C
:101BA000F0BD000040F2C801C2F2000191F834001B
:101BB00091F84810002818BF0120002918BF0230F2
:101BC0007047000040F2C800C2F20000C0787047C1
:101BD00040F2C800C2F2000080787047C11E11F1C7
:101BE000020F3CBF0020704740F2C80100EB8000AC
:101BF000C2F2000101EB800090F830007047000055
:101C000040F2C800C2F2000000210171416380F877
:101C10003810C0E90F11C0F84310816480F84C10EF
:101C2000C0E91411C0F85710016000F055BC000065
:101C3000B0B540F2C804C2F20004A07802281BD05C
:101C40002079012804BF0020207194F83400A8B145
:101C500094F8480060B3A078022808BFB0BD20798E
:101C600010B1002007E000BF94F8340094F8481049
:101C7000084318BF0120A070B0BD00BF002501209F
:101C8000C4E90F5584F84650656384F8385000F075
:101C9000F1FB042084F834000120A4F84450E563EB
:101CA000C4F8355000F0E6FB94F848000028D2D183
:101CB00000250220C4E9145584F85A50A56484F81C
:101CC0004C5000F0D7FB042084F848000220A4F810
:101CD00058502565C4F8495000F0CCFBBBE7000024
:101CE00080B500F0F9FB40F2C800C2F20000817834
:101CF000022908BF80BD00210122C0E90F11C0E9FF
:101D00001411416380F83810816480F84C1002711E
:101D1000817080BD40F2C801C2F200010A784B78A0
:101D20009A4204BF0020704748B102EB420301EB26
:101D3000030C9CF807308370BCF805300380501CFE
:101D400000F0070008700120704700002DE9F04FF7
:101D500081B040F2C805C2F20005A878022801D07F
:101D6000287928B101B0BDE8F04F00F0B5BB00BF45
:101D700000274FF0000B4FF001082FE000F0E4FBCC
:101D8000002800F07E815FFA88F000F073FB69782C
:101D900001208AF844002A78481C00F0070090428D
:101DA0008AF8454002BF8A1C02F007022A7001EB44
:101DB0004101294402224A7181F80680CF7168707E
:101DC00089F800708AF83570CAF840700BF1140B6E
:101DD000BBF1280F08F1010800F0828205EB0B0A25
:101DE000D14619F8340F01380528EFD8DFE800F0A4
:101DF00004843468149C00BF5FFA88F4022C00F05D
:101E0000A580012C40F0928100F086FB002800F0B4
:101E100081810320A0E000BF9AF83560002E00F019
:101E20008D80701F5FFA88F410F1020F4FF00001EF
:101E3000204638BF012100F0D7FA701E0328C5D80C
:101E4000DFE810F004005C015401580100F064FB6D
:101E5000002840F05881B9E79AF83660002E57D034
:101E600000F072FDDAF84010401A47F23051884213
:101E7000C0F0A4809AF846405FFA88F0CAE90F776C
:101E80008AF84670C9F8007089F8047000F0F2FA18
:101E900069782A78481C00F007009042AAF844703C
:101EA00002BF8A1C02F007022A7001EB410129449B
:101EB00006224A7181F80680CC71687086E700BFFF
:101EC000ABF11400B0FA80F040094400BBF1000F00
:101ED0004FEA800608BF012408BF0326002C18BF64
:101EE000002E15D0BBF1000F00F0948000F01CFB19
:101EF000002840F0948060E19AF83540042C00F20C
:101F0000C080DFE804F005B9A1A7030036E700BFF1
:101F1000CAF83C70CAF840708AF84670C9F8007078
:101F200089F804700DE000BF9AF83500042800F22B
:101F30009B80DFE800F003D595CF8100042089F86D
:101F400000005FFA88F000F095FA3FE700F0ECFA45
:101F5000002800F0E58004200021831E00F0050227
:101F600023F00203B3FA83F3012A4FEA531318BF95
:101F70005A00904544D16B782F785A1C02F0070222
:101F8000BA428AF8350002BF981C00F0070028709A
:101F900003EB4300284401230027437180F80680A7
:101FA000C77120466A7000F01FFA022089F800000D
:101FB00000F0CAFCCAF8400008E700BF701F5FFAD3
:101FC00088F410F1020F4FF00001204638BF0121C4
:101FD00000F00AFA9AF83700002800F0D780701E47
:101FE000032800F23181DFE810F005002B011F010A
:101FF000250100BF00F090FA002840F06B8123E13A
:102000002046CAE90F778AF84670C9F8007089F847
:10201000047098E700F080FA002800F0CE80701E6F
:102020003746DFE800F003C7BFC300BF00F074FA13
:10203000002840F0C280E7E000F086FAA0B15FFA25
:1020400088F000F0A7F9C1E600F06EFA00287FF4EE
:102050009AAE16E000F070FA00287FF494AE10E01B
:1020600000F062FA0028EAD15FFA88F000F002FA84
:1020700004208AF835704AE000F04EFA00287FF418
:1020800082AE00F061FCDAF84010401A43F6982165
:102090008842FFF49BAE5FFA88F0CAE90F778AF8AE
:1020A0004670C9F8007089F8047000F0E3F96978A7
:1020B0002A78481C00F007009042AAF8447002BF3A
:1020C0008A1C02F007022A7001EB41012944052213
:1020D00055E000BF00F030FA0028B0D1C4E700BFDF
:1020E00000F01AFA0028AAD1BEE700BF00F024FAD7
:1020F00048B96BE600F028FA28B967E600F014FA50
:1021000000283FF463AE204600F044F9062089F829
:1021100000005BE600F010FA40B1012101201CE74D
:1021200000F012FA10B10220012116E7204600F05B
:10213000A1F900F009FCDAF84010401A49F2E03148
:10214000C0F204018842FFF441AE2046CAE90F778D
:102150008AF84670C9F8007089F8047000F08AF9AE
:1021600069782A78481C00F00700904202BF8A1C58
:1021700002F007022A7001EB4101294404224A714E
:1021800081F80680CF71687020E600BF701E0328BA
:102190003FF61CAEDFE800F002968E9200F0BCF92C
:1021A00092E000BF00F0C8F938B92DE000F0CCF99A
:1021B00018B929E000F0B8F930B3701E2746DFE8FF
:1021C00000F0030F070B00BF00F0A6F958B910E0AC
:1021D00000F0B2F938B90CE000F0B6F918B908E02F
:1021E00000F0A2F928B1BBF1000F09D000F09CF972
:1021F00050B15FFA88F000F03DF90027E6E500BF36
:1022000000F08AF90028F4D100215FFA88F08AF8FA
:102210003570032F38BF012100F0E6F8052089F85A
:1022200000000027D2E500BF00F086F9002851D158
:102230000AE000BF00F088F900284BD104E000BF9D
:1022400000F072F9002845D19AF8380050B300F038
:102250007BFBDAF83C10401A9628FFF4B7AD204615
:1022600000F008F969782A78481C00F007009042CD
:10227000AAF8447002BF8A1C02F007022A709AF87A
:10228000462001EB4101294403234B7181F806806C
:10229000CA716870CAE90F77C9F8007089F80470CC
:1022A00094E500BF01208AF8380000F04DFBCAF821
:1022B0003C008BE500F040F906E000BF00F044F977
:1022C00002E000BF00F030F900283FF47FAD0120AC
:1022D0008AF837008AF83870CAF83C7076E500BF93
:1022E000A87802280CD0287910B1002007E000BFA0
:1022F00095F8340095F84810084318BF0120A870DD
:1023000001B0BDE8F08F000040F2C801C2F2000148
:102310000222C87000208A70C1E90F00C1E91400D0
:10232000486381F83800886481F84C0000F0D4B824
:10233000B0B540F2C804C2F20004A07802281CBF65
:102340000020B0BD40F60040C4F20100102100F0B2
:10235000EFFA00284FF0000008BFB0BD6080207188
:10236000C4E90F0084F84600606384F83800012057
:10237000002500F07FF80220C4E9145584F85A5073
:10238000A56484F84C5000F075F800F0A5F8012021
:10239000B0BD000010B5022814D0012818BF10BD30
:1023A00040F60004C4F2010420464FF4006101220B
:1023B00000F0C4FA20464FF480510122BDE81040DD
:1023C00000F0BCBA40F60004C4F2010420464FF409
:1023D0000041012200F0B2FA04F5806008210122D8
:1023E000BDE8104000F0AABA10B5022816D00128A6
:1023F00018BF10BD40F60004C4F2010400292046B5
:102400004FF400611ED0002200F098FA20464FF4ED
:1024100080510122BDE8104000F090BA40F600045F
:10242000C4F20104002920464FF4004116D00122D5
:1024300000F084FA04F5806008210022BDE8104015
:1024400000F07CBA012200F079FA20464FF4805166
:102450000022BDE8104000F071BA00BF002200F079
:102460006DFA04F5806008210122BDE8104000F0FB
:1024700065BA000010B540F600040228C4F2010459
:102480001CD001280ED120464FF40061002200F03C
:1024900055FA20464FF480510022BDE8104000F06C
:1024A0004DBA00BF20464FF40061002200F046FA0A
:1024B00020464FF48051002200F040FA20464FF4AD
:1024C0000041002200F03AFA04F580600821002261
:1024D000BDE8104000F032BA10B540F60004C4F276
:1024E000010420464FF40061002200F027FA204644
:1024F0004FF48051002200F021FA20464FF40041B1
:10250000002200F01BFA04F5806008210022BDE8DB
:10251000104000F013BA000040F25820C2F2000050
:10252000002101F03BBA000040F25820C2F2000046
:102530000C30002101F032BA40F25820C2F2000003
:102540001830002101F02ABA40F25820C2F20000EF
:102550002430002101F022BAB0B540F60004C4F2E4
:1025600001042046012100F0E3F940F25825C2F2AF
:1025700000050146284601F007FA2046022100F036
:10258000D7F9014605F10C0001F0FEF920460421BF
:1025900000F0CEF9014605F1180001F0F5F92046EA
:1025A000082100F0C5F9014605F12400BDE8B0405E
:1025B00001F0EAB9B0B540F60004C4F201042046C7
:1025C000012100F0B5F940F25825C2F2000501469C
:1025D0002846002201F0E8F92046022100F0A8F97F
:1025E000014605F10C00002201F0DEF9204604212D
:1025F00000F09EF9014605F11800002201F0D4F91F
:102600002046082100F094F9014605F1240000223B
:10261000BDE8B04001F0C8B9FEE700007047000017
:10262000014690F82100022816D10868D1E90FC3AD
:10263000026822F00E020260026822F001020260CB
:10264000012000FA03F2CCF8042081F821000020D8
:10265000002281F820207047042088630120002296
:1026600081F820207047000090F82110022923D122
:10267000026840F2040C1168C4F2020C21F00E0151
:10268000116013682F21C4F202018A4223F0010372
:10269000136015DD3023C4F202039A421CD0442398
:1026A000C4F202039A421BD05823C4F202039A4296
:1026B0001CD14FF4803321E0042181630120704755
:1026C0000823C4F202039A420ED01C23C4F2020370
:1026D0009A420BD1102311E04FF480730EE000BF3B
:1026E0004FF480530AE000BF012307E00CF16801BA
:1026F0004FF080738A4208BF4FF480130121CCF859
:10270000003080F82110416B0022002980F8202041
:1027100004BF0020704780B58847002080BD0000BE
:102720002DE9F04F82B00E68002E00F0FD8041F2DE
:102730000042C4F20102042340F2004E904208BF5E
:1027400003234FF6FF7CC4F2010E00930024012303
:10275000C1F2100C4FF0000A4FF000094BE000BF2F
:1027600041F20002C4F20102009F904208BF02271A
:1027700004F00C030F229A402BEA020207FA03F33B
:102780004FEA9A051A4346F825204E6840F20C4558
:10279000F202DEF8082054BF22EA080242EA0802E8
:1027A000C4F20105CEF808202A68B30254BF22EA19
:1027B000080242EA08022A60B303DEF8042054BF8C
:1027C00022EA080242EA0802F303CEF80420DEF807
:1027D00000204FF0010354BF22EA080242EA080237
:1027E000CEF800200E680AF1010A36FA0AF204F166
:1027F000040400F0998003FA0AFB16EA0B08F1D0F2
:102800004E68664512DC122E56D8DFE806F0350B0E
:102810004D4955555555555555555555555555458C
:10282000510000BFD1F80C9046E000BF4FF6FF7298
:10283000C1F2210296420FDC0022C1F2110296423F
:102840001AD00022C1F21202964215D00022C1F223
:102850002102964210D02FE00022C1F222029642BD
:102860000AD00022C1F23102964205D00022C1F204
:102870003202964220D100BF8A684AB1012A14BFB1
:10288000C0F814B0C0F810B04FF0080914E000BF51
:102890004FF0040910E000BFCA6802F104090BE020
:1028A0004FF0000908E000BFCA6802F1080903E020
:1028B000CA6802F10C0900BF02462646B8F5807FBF
:1028C00024BF0432203E17680F25B54027EA0505CE
:1028D00009FA06F635431560CA79D2067FF582AF4C
:1028E00041F21803C4F202031A68AEF57E7642F094
:1028F00001021A601A6802F001020192019A2AF09C
:10290000030256F802B040F60002C4F201029042FF
:1029100008D040F60042C4F2010290427FF420AF9A
:10292000012725E7002723E702B0BDE8F08F00006C
:102930008068084018BF012070470000002A08BFC7
:10294000090401617047000040F28820C2F20000D3
:102950000068704740F2000040F28821C2F2000097
:10296000C2F2000100780A68104408607047000055
:1029700080B542F20000C4F20200016841F010018B
:102980000160032000F06CF80F2000F005F800F063
:1029900027F8002080BD000070B540F20006C2F2AA
:1029A000000640F208013278C2F200014FF47A7357
:1029B0000968B3FBF2F20446B1FBF2F1084600F0FD
:1029C00065FB0F2C4FF0010508D838B94FF0FF30E8
:1029D00021460022002500F017F87460284670BDDB
:1029E00070470000002848BF704700F01F01012217
:1029F00002FA01F11C2202EAD0004EF20012CEF2DD
:102A0000000281507047000010B54EF60C5CCEF20B
:102A1000000CDCF80030C3F3022E8EF00704042C07
:102A200028BF0424BEF103034FF0FF3E0EFA04F466
:102A300038BF0023A14399400EFA03F39A43114390
:102A400000F00F0200F160430901043A03F564430A
:102A50006244002848BF02F10C03197010BD000049
:102A60004EF60C51CEF200010A684FF6FF031A40F1
:102A700060F30A2242F0806040F0FD700860704709
:102A8000002804BF012070472DE9F04381B042F2D5
:102A90000008C4F202080446D8F800000D4600F011
:102AA000070088420CD2D8F8000020F00700284325
:102AB000C8F80000D8F8000000F00700A8426CD168
:102AC000206841F204098107C4F2020917D54107C1
:102AD00005D5D9F8001041F4E061C9F800100107EC
:102AE00005D5D9F8001041F46051C9F80010D9F8A3
:102AF0000010A26821F0F0011143C9F80010C007CE
:102B000042D1D8F8000000F00700A8420CD9D8F84C
:102B1000000020F007002843C8F80000D8F80000A3
:102B200000F00700A84238D12068410707D5D9F83E
:102B30000010E26821F4E0611143C9F800100007B9
:102B400008D5D9F80000216920F4605040EAC1009E
:102B5000C9F80000D9F8002002F00C00082841F262
:102B60000020C0F27A004DD145F27A33C2F383419E
:102B7000C0F60003595CD20338D440F60010C0F20E
:102B80003D0048433EE000BF606859F8041C02283D
:102B900008D0012826D1890306D4012001B0BDE860
:102BA000F08300BF8901F8D5D9F8001021F00301A6
:102BB0000843C9F80000FFF7C7FE064641F2883710
:102BC000D9F80000616800F00C00B0EB810F98D0DC
:102BD000FFF7BAFE801BB842F2D9032001B0BDE86E
:102BE000F08300BF8907D8D5DEE700BFD9F8002001
:102BF00045F27833C2F34042C0F600039A5C484382
:102C0000B0FBF2F0D9F8001045F26032C1F30311C5
:102C1000C0F60002515C40F2080220FA01F140F2D5
:102C20000400C2F200000068C2F200021160FFF767
:102C3000B3FE002001B0BDE8F083000040F20800C0
:102C400041F20401C2F20000C4F202010068096806
:102C500045F27032C1F30221C0F60002515CC84057
:102C60007047000040F2080041F20401C2F2000087
:102C7000C4F202010068096845F27032C1F3C22152
:102C8000C0F60002515CC84070470000002804BF35
:102C9000012070472DE9F04182B00446007841F2EE
:102CA0000006C007C4F202060CD0706800F00C00E9
:102CB000042840F081803068800303D560680028D4
:102CC00000F04681207880071BD5706810F00C0F4B
:102CD00009D0706800F00C00082840F08780706808
:102CE000C00300F183803068800703D52069012884
:102CF00040F02E813068616920F0F80040EAC100A0
:102D000030602078000713D4207840072CD4E56980
:102D1000002D00F01881706800F00C00082840F0C9
:102D2000A780012D40F00481012002B0BDE8F081B0
:102D3000A069002800F084800020C4F24220012114
:102D4000C0F88014FFF700FE054600BF706A8007D8
:102D500000F1B280FFF7F8FD401B0228F6D90320EE
:102D600002B0BDE8F08100BFF0695FEAC00808D496
:102D7000F06940F08050F061F06900F08050009000
:102D8000009847F20007C4F200073868C00549D42C
:102D9000386840F480703860FFF7D6FD054600BF04
:102DA0003868C0053ED4FFF7CFFD401B6428F7D933
:102DB000032002B0BDE8F081706800F00C00082824
:102DC00003D17068C0033FF576AF616830680029B1
:102DD00000F00C81B1F5A02F00F00081B1F5803F2B
:102DE00040F01A8140F480301CE100BF20690028C7
:102DF00040F20000C4F2422000F08880012101600E
:102E0000FFF7A2FD054600BF306880073FF572AFAF
:102E1000FFF79AFD401B0228F6D9032002B0BDE857
:102E2000F08100BFE168306A002900F09D8005292B
:102E300000F09280012940F0AF8040F00100B1E045
:102E40000020C4F242200021C0F88014FFF77CFD6E
:102E5000054600BF706A80077FF556AFFFF774FD27
:102E6000401B0228F6D9032002B0BDE8F08100BF64
:102E70000027C4F2422700203866FFF765FD022DC7
:102E800005460DD13068800140F1DE80FFF75CFD22
:102E9000401B02284FF00300F4D902B0BDE8F081D6
:102EA000306880014FD5FFF74FFD401B02284FF0DF
:102EB0000300F5D9F1E700BF40F20800C2F20000BC
:102EC000006844F6D351C1F26201A0FB0101480A37
:102ED000019000BF00BF0198411E002801913FF4FE
:102EE00013AF00BF0198411E002801913FF40CAFC1
:102EF00000BF0198411E002801913FF405AF00BFBB
:102F00000198411E00280191E4D1FDE600210160F5
:102F1000FFF71AFD054600BF306880077FF5F1AE68
:102F2000FFF712FD401B02284FF00300F4D9B4E76D
:102F30007068216A00F480328A4209D1616A00F423
:102F40007010884204D1002002B0BDE8F08100BFBB
:102F5000012002B0BDE8F08140F004003062306A28
:102F600040F001001EE000BF20F001003062306A36
:102F700020F004003062FFF7E7FC054641F2883795
:102F8000306A800720D5FFF7DFFC401BB8424FF0C6
:102F90000300F5D981E700BF20F001003062306AFC
:102FA00020F004003062FFF7CFFC054641F288377D
:102FB000306A800708D4FFF7C7FC401BB842F7D936
:102FC000032002B0BDE8F081B8F1000F3FF59FAEDD
:102FD000F06920F08050F06199E600BF40F4802055
:102FE0003060306840F480301CE000BF20F4803056
:102FF0003060306820F480203060FFF7A5FC054683
:10300000306880037FF55EAEFFF79EFC401B6428AE
:103010004FF00300F4D940E720F48030306030688E
:1030200020F480203060FFF78FFC05463068800375
:103030003FF548AEFFF788FC401B6428F6D9032013
:1030400002B0BDE8F08100BF206AB0F5803F05D135
:103050007168A26821F40031114371607168626A7D
:1030600021F4741111430843706001203866FFF7A2
:103070006BFC0446306880013FF565AFFFF764FCE8
:10308000001B02284FF00300F4D906E7411E002080
:10309000B0EB116F1CBF012070474EF21002CEF250
:1030A000000251604EF62351CEF20001F0230B7066
:1030B00007219060116070477047000000F0A4BCC9
:1030C000B0B582B001680A68CC684B6902F02F0580
:1030D000202D04F0200505D125B102B0BDE8B04097
:1030E00001F046BA5FEA027C1EBF03F0010E04F451
:1030F000907313EB0E0341D1036BD50618D5012B4A
:1031000016D114F0100313D0002201920A68019224
:103110004A680192019A496949064BD4818DC28D52
:10312000C38D002B18BF914240F0F48102B0B0BDB6
:1031300013062DD514F080032AD090F84120212ABF
:10314000F4D18268B2F5805F03D10269002A00F0F1
:103150006782026A531C036212784A60C28C013A89
:103160001304C284E2D1C86820F08000C860C86837
:1031700040F04000C86002B0B0BD00BFD30718BF28
:1031800014F4807340F0D080530700F1D380D8E06E
:103190005206CBD514F04002C8D0CA6822F04002D3
:1031A000CA60202180F8411002B0BDE8B04000F0B4
:1031B000E7BB00BFC16B0A68526893B2002BB5D061
:1031C000858DAB42B2D2C2858969202900F0A180E9
:1031D000016851E8031F026821F4807142E803137B
:1031E000DBB1016851E8031F026821F4807142E8F5
:1031F000031393B1016851E8031F026821F4807141
:1032000042E803134BB1016851E8031F026821F43F
:10321000807142E80313002BDAD1016851E8051FE1
:10322000026821F0010142E80513C3B3016851E8C7
:10323000051F026821F0010142E805137BB3016814
:1032400051E8051F026821F0010142E8051333B37C
:10325000016851E8051F026821F0010142E80513E9
:10326000002BDAD11BE000BF016851E8051F02689E
:1032700021F0400142E80513DBB1016851E8051F68
:10328000026821F0400142E8051393B1016851E85A
:10329000051F026821F0400142E805134BB10168A7
:1032A00051E8051F026821F0400142E80513002B98
:1032B000DAD1202180F8421000210163016851E831
:1032C000031F026821F0100142E80313DBB101681B
:1032D00051E8031F026821F0100142E8031393B183
:1032E000016851E8031F026821F0100142E803134E
:1032F0004BB1016851E8031F026821F0100142E858
:103300000313002BDAD1C16B04460846FFF788F996
:10331000204602214163818DC28D891A89B202B093
:10332000BDE8B040FFF7C8BE436C43F001034364FF
:10333000530706D5BEF1000F03D0436C43F00203E0
:103340004364930706D5BEF1000F03D0436C43F0EE
:1033500004034364BCF1000F06D55EEA050303D005
:10336000436C43F008034364436C002B3FF4DEAE30
:10337000920605D525B1044601F0FAF821682046E9
:103380004969426C01F0400102F00802891800F01E
:10339000B98000BF016851E8031F026821F49071F1
:1033A00042E80313BBB3016851E8031F026821F42C
:1033B000907142E8031373B3016851E8031F026878
:1033C00021F4907142E803132BB3016851E8031F05
:1033D000026821F4907142E80313002BDAD11AE05D
:1033E000016851E8051F026821F0010142E8051358
:1033F000DBB1016851E8051F026821F0010142E8D4
:10340000051393B1016851E8051F026821F001011D
:1034100042E805134BB1016851E8051F026821F02D
:10342000010142E80513002BDAD1016B012924D1F7
:10343000016851E8031F026821F0100142E80313FC
:10344000DBB1016851E8031F026821F0100142E876
:10345000031393B1016851E8031F026821F01001C2
:1034600042E803134BB1016851E8031F026821F0E1
:10347000100142E80313002BDAD1202180F842101A
:103480000021016301684969490640F1C380016870
:1034900051E8051F026821F0400142E80513DBB145
:1034A000016851E8051F026821F0400142E8051358
:1034B00093B1016851E8051F026821F0400142E81C
:1034C00005134BB1016851E8051F026821F0400166
:1034D00042E80513002BDAD1C16B002900F09A8075
:1034E00043F6FD12C0F60002044608464A63FFF7A1
:1034F000BBF800283FF41AAEE06B416B02B0BDE8A8
:10350000B04008470446FFF7D9FD0020606402B0D0
:10351000B0BD00BF891A00BF026852E8032F0368DC
:1035200022F4907243E80325BDB3026852E8032FEA
:10353000036822F4907243E8032575B3026852E8E9
:10354000032F036822F4907243E803252DB3026829
:1035500052E8032F036822F4907243E80325002DFC
:10356000DAD11AE0026852E8052F036822F001025E
:1035700043E80525DDB1026852E8052F036822F013
:10358000010243E8052595B1026852E8052F03685A
:1035900022F0010243E805254DB1026852E8052FEB
:1035A000036822F0010243E80525002DDAD120222C
:1035B00080F8422000220263026852E8032F036869
:1035C00022F0100243E80325DDB1026852E8032F20
:1035D000036822F0100243E8032595B1026852E81F
:1035E000032F036822F0100243E803254DB102685F
:1035F00052E8032F036822F0100243E80325002D50
:10360000DAD1022289B2426302B0BDE8B040FFF7CE
:1036100053BD00BF02B0BDE8B040FFF74FBD00BFD3
:10362000026A32F8023B6FF35F234B60026295E55A
:10363000002804BF0120704710B5044690F84100EF
:1036400028B9002084F84000204600F063F82420C8
:1036500084F841002068D4E90212C36823F40053BF
:10366000C360036923F440531A430261D4E904237D
:103670001143C268194341F20C639A431143C1607C
:103680004169A26921F44071114343F60002C4F27A
:1036900001029042416103D0FFF7D0FA02E000BF7F
:1036A000FFF7E0FAD4E90023192148439900B0FB61
:1036B000F1F048F21F5CC5F2EB1CA0FB0C314FF699
:1036C0009C734909C0F6FF7301FB0300322303EB2F
:1036D0000010A0FB0C03F02000EA531000EB0110D7
:1036E000C3F34311084490601069202120F49040F6
:1036F0001061506920F02A005061D06840F40050F9
:10370000D0600020606484F8411084F84210606347
:1037100010BD000070B586B040F60004C4F201048C
:10372000006804F54051002688420596CDE90366FD
:10373000029601D006B070BD41F21800C4F202003A
:10374000016802AD41F480410160016801F48041EB
:1037500001910199016841F0040101600068294666
:1037600000F00400019001984FF4007002900220D4
:103770000390032005902046FEF7D2FF4FF48060AF
:10378000CDE90206204629460496FEF7C9FF06B099
:1037900070BD000090F84230202B07D100294FF077
:1037A000010318BF002A05D11846704702231846A6
:1037B000704700BF00230363816222218285C28596
:1037C000436480F842100169006819B1C16841F48E
:1037D0008071C160416941F001014161C16841F0FE
:1037E0002001C1601846704700F086BE2DE9F04305
:1037F00081B0044690F84100202809D100294FF0FB
:10380000010018BF002A07D101B0BDE8F08300BF56
:10381000022001B0BDE8F0830020606421201D4635
:103820000E4684F841001746FFF78EF8A784E78418
:10383000A1688146B1F5805F02D1206900285DD082
:1038400037460020E28C2168002A5DD06A1C24D013
:10385000002D4AD0804600BF0868000608D4FFF754
:1038600073F8A0EB0900A8427AD82168C868F3E78A
:1038700017B117F8010B04E038F8020B00276FF3BB
:103880005F204860E08C0138E084E08C0028E3D1C0
:103890003AE000BF0A68120609D40A68120606D484
:1038A0000A6812065CBF0A685FEA0262F2D51FB1BD
:1038B00017F8012B05E000BF30F8022B00276FF34B
:1038C0005F224A60E28C013AE284E28C002AE4D171
:1038D0001AE000BF30F8022B00276FF35F224A6026
:1038E000E28C013AE284E28C72B10A68120635D5A4
:1038F000002FEFD017F8012BF1E700BF002730466B
:10390000E28C2168002AA1D1086840061ED42DB39C
:10391000681C14D1086840062AD40868400627D4D9
:103920000868400624D4086840064FF00000F1D52E
:103930000DE000BF2068C1680068400618D4FFF79A
:1039400003F8A0EB0900A842F4D909E000202021E7
:1039500084F8411001B0BDE8F08300BFFEF7F4FF2A
:103960000320202184F8411001B0BDE8F08300BF9E
:103970000020202184F8411001B0BDE8F083000050
:1039800070470000FEE7000010B50446017041706A
:10399000FEF7DAFF60600020207210BD4078401A08
:1039A000B0FA80F040097047B0B50446007815467B
:1039B00000228842227203D02170FEF7C5FF6060AA
:1039C000FEF7C2FF6168401A322838BFB0BD2078C8
:1039D0006178814204D0A842607004BF0120207247
:1039E000B0BD0000FEE70000FEE7000070470000E9
:1039F00070470000FEF7AEBF70470000406A00212C
:103A0000C185C184FFF75ABB40F22411C2F2000104
:103A10008A68002A08BF704700681368984201D07E
:103A2000704700BF013110460122FFF7B3BE00000E
:103A300080B540F22411C2F2000188600020488065
:103A40008880C880087001F10C006021FCF7BEFD81
:103A500080BD00002DE9F04F8DB040F2241AC2F273
:103A6000000A9AF80000C0B1EFF3108072B6BAF8FD
:103A700004000FF62C21AAF8060000208AF80000A6
:103A800062B6AAF802008AF80C0045F2D030C0F6FF
:103A900000000FF6142200F0ADFFBAF80600BAF8E5
:103AA0000410884202D10DB0BDE8F08F40F2D81862
:103AB000C2F2000800250FF6FC19EB4611E000BF2A
:103AC00045F2D030C0F600000FF6082200F092FF59
:103AD0004EE300BF0570BAF80600BAF80410884239
:103AE000E1D0BAF8060018F80000BAF806100D2860
:103AF00001F1010101F07F01AAF8061001D00A28A6
:103B000074D1BAF802000028E5D0514611F80C2F04
:103B1000242A0D5440F02C83514611F80D2F002A11
:103B2000009171D00AF10E01012000BF2C2A02BFC2
:103B300001F8015C4BF82010013011F8012B0AB19B
:103B40000C28F3DB0128C0F2138300990C78002CB9
:103B500000F0A481A4F16103DEB22246A4F12007A3
:103B60001A2E38BF3A46D2B2482A40F05D814E78CC
:103B7000002E00F0C981A6F16102D2B21A2A38BF24
:103B8000203EF2B2452A40F04F818E78002E00F0A0
:103B9000C581A6F16102D2B21A2A38BF203EF2B224
:103BA0004C2A40F04181CE78002E00F0C381A6F16E
:103BB0006102D2B21A2A38BF203EF2B24C2A40F03B
:103BC00033810E79002E00F0D381A6F16102D2B2CA
:103BD0001A2A38BF203EF2B24F2A40F025814A7996
:103BE000002A40F021810527C3E100BFBAF8021086
:103BF0005E2900F2BD824A1C0AF10C035854981841
:103C0000AAF8022066E700BF002401230120002754
:103C100019F80720002A00F04981002B00F00081EC
:103C20000021012800F0A4820FF69802515C0029BF
:103C300040F09E8201990C78002C00F05D81A4F187
:103C40006103DAB22346A4F120071A2A38BF3B46A3
:103C5000DBB2422B44D14B78002B00F05D81A3F105
:103C60006106F6B21A2E38BF203BDBB2552B37D196
:103C70008B78002B00F05C81A3F16106F6B21A2E5E
:103C800038BF203BDBB25A2B2AD1CB78002B00F077
:103C90006D81A3F16106F6B21A2E38BF203BDBB26C
:103CA0005A2B1DD10B79002B00F06C81A3F161061A
:103CB000F6B21A2E38BF203BDBB2452B10D14B7920
:103CC000002B00F06381A3F16106F6B21A2E38BF13
:103CD000203BDBB2522B03D18B79002B00F05A81B1
:103CE0004FF0000C022888BF4FF0010C1A2A28BFA1
:103CF0002746FFB2522F40F09B814F78002F00F0F3
:103D00001581A7F16106F6B21A2E38BF203FFFB227
:103D1000452F40F08D818F78002F00F02581A7F18D
:103D20006106F6B21A2E38BF203FFFB2532F40F083
:103D30007F81CF78002F00F02381A7F16106F6B2D2
:103D40001A2E38BF203FFFB2452F40F071810F7906
:103D5000002F00F01981A7F16106F6B21A2E38BFC4
:103D6000203FFFB2542F40F063814F79002F00F0C5
:103D70000F81A7F16106F6B21A2E38BF203FFFB2BD
:103D80005F2F40F055818F79002F00F06F83A7F1EE
:103D90006106F6B21A2E38BF203FFFB2452F40F021
:103DA0004781CF79002F00F07183A7F16106F6B249
:103DB0001A2E38BF203FFFB2532F40F039810F7ABF
:103DC000002F00F06783A7F16106F6B21A2E38BF04
:103DD000203FFFB2542F40F02B814F7A002F00F08C
:103DE0005B83A7F16106F6B21A2E38BF203FFFB2FF
:103DF0004F2F40F01D818F7A002F00F04F83A7F1E5
:103E00006106F6B21A2E38BF203FFFB2502F40F0A5
:103E10000F81CF7A002F40F00B810B27FEE000BF0F
:103E2000A4F16103A4F12007DAB21A2A28BF2746B9
:103E3000FAB2432A42D0502A40F09A814A78002AA6
:103E400064D0A2F16103DBB21A2B38BF203AD2B2A0
:103E5000492A40F08D818A78002A61D0A2F161035D
:103E6000DBB21A2B38BF203AD2B24E2A40F0808102
:103E7000CA78002A60D0A2F16103DBB21A2B38BFE6
:103E8000203AD2B2472A40F073810979002940F0E4
:103E90006F810421012853D16AE100BF002401236E
:103EA000002719F80720002A7FF4B7AE45F2B13099
:103EB000C0F6000000F09EFD5AE100BF4A784AB308
:103EC000A2F16103DBB21A2B38BF203AD2B24D2ADD
:103ED00040F04E818A783AB3A2F16103DBB21A2B2B
:103EE00038BF203AD2B2442A40F04281C978002932
:103EF00040F03E81032194E64FF0000C0027022899
:103F000088BF4FF0010C89E0012732E00121012830
:103F100016D12DE1012184E601263CE0022728E0AC
:103F2000022101280CD123E102217AE6012775E064
:103F3000022630E003271CE00321012800F018814D
:103F40000FF27850405C002840F012810198002167
:103F50000A22FCF7E3FA014645F2F730C0F600000A
:103F600000F048FD04E100BF022757E0032612E0FD
:103F70000427002319F80720002A7FF44EAE95E7A6
:103F800003274BE0042606E0042747E0052602E06D
:103F9000052743E0062602284FF0000C88BF4FF0AB
:103FA000010C032836D345F24743C0F600039E5D5B
:103FB00086BB0298002800F097800178002900F065
:103FC00093800CA90A22FCF7A9FA0C990978002918
:103FD00040F08A80B0F5807F80F08680C7B20446CA
:103FE0003846FDF76DFC002840F0C280002F00F03D
:103FF000D78145F2E23045F2474145F21743C0F61A
:104000000000C0F600012246C0F6000300F0F2FCFA
:10401000AEE000BF002C7FF469AE002745F23B42C2
:10402000C0F60002D75D002F46D0002C00F0DE80E5
:10403000A4F16107FBB22246A4F120071A2B38BF76
:104040003A46D2B2532A40F0A0804E78E6B3A6F1A9
:104050006102D2B21A2A38BF203EF2B2542A40F08E
:1040600094808E78002E4DD0A6F16102D2B21A2A29
:1040700038BF203EF2B2412A40F08780CE78002E31
:1040800042D0A6F16102D2B21A2A38BF203EF2B263
:10409000522A40F07A800E79C6B3A6F16102D2B2FC
:1040A0001A2A38BF203EF2B2542A6ED14A79002A29
:1040B0006BD105262BE000BFFEF73AF930B145F28F
:1040C0009A30C0F60000F5E6012620E045F2D03037
:1040D00045F23B41C0F60000C0F600010FF20C4271
:1040E00000F088FC44E000BF45F2D03045F2474183
:1040F000C0F60000C0F600010FF2CC3200F07AFCEE
:1041000036E000BF022602E0032600E0042645F266
:104110009432C0F60002925D8CF00106002A18BFAE
:104120000122324330D10298002863D0017800295F
:1041300060D00CA90A22FCF7F1F90C990978002942
:1041400058D10446B0F5807F54D2E7B23846FDF727
:1041500049FC052800F2468145F25943C0F60003A8
:10416000DFE810F0060044010C0034012E013A0192
:10417000AAF802500AF10C00ACE400BF45F241433A
:10418000C0F6000332E100BF84B31A2B38BF3C46AF
:10419000E2B2532A7FF494AC4A784AB3A2F16103A5
:1041A000DBB21A2B38BF203AD2B2542A7FF488AC43
:1041B0008A784AB3A2F16103DBB21A2B38BF203AE6
:1041C000D2B24F2A7FF47CACCA78FAB1A2F1610373
:1041D000DBB21A2B38BF203AD2B2502A7FF470AC2F
:1041E0000A79002A7FF46CAC042210E000220EE071
:1041F00001220CE045F2D03045F29431C0F60000C7
:10420000C0F6000160E000BF022200E003220428A3
:10421000FFF456AC45F24240C0F60000805C002836
:104220007FF44EAC0298002846D00178002943D094
:104230000CA90A22FCF772F90C990978E1BBB0F5D8
:10424000807F39D203990A78002A45D0A2F1610310
:10425000DBB21A2B38BF203AD2B2522A4ED04C2AA7
:1042600042D14A78002A00F0DB80A2F16103DBB280
:104270001A2B38BF203AD2B2452A35D18A78002A83
:1042800000F0F080A2F16103DBB21A2B38BF203AB4
:10429000D2B2462A28D1CA78002A00F0E980A2F1D9
:1042A0006103DBB21A2B38BF203AD2B2542A1BD199
:1042B0000979C9B90421DCE045F2D03045F2424128
:1042C000C0F60000C0F6000145F20B42C0F6000245
:1042D00000F090FB4CE700BF002145F25342C0F6CE
:1042E0000002515C002943D0C1B245F24240C0F601
:1042F00000007BA200F00CFA3AE700BF4A78002ADF
:1043000000F09080A2F16103DBB21A2B38BF203A93
:10431000D2B2492AE8D18A78002A00F0A580A2F119
:104320006103DBB21A2B38BF203AD2B2472ADBD165
:10433000CA78002A00F0A880A2F16103DBB21A2B30
:1043400038BF203AD2B2482ACED10A79002A00F0EA
:104350009F80A2F16103DBB21A2B38BF203AD2B2A0
:10436000542AC1D149790029BED10521B5E700BF42
:104370000121C4B22046FDF773FB052866D845F23B
:104380005942C0F60002DFE800F0036505554F5BB7
:10439000EEE600BF45F24142C0F600025AE000BF1F
:1043A00045F2D03045F2474145F21742C0F60000D1
:1043B000C0F60001C0F6000200F01CFBD8E600BF0A
:1043C00045F23243C0F6000310E000BF45F203435C
:1043D000C0F600030AE000BF45F22543C0F6000323
:1043E00004E000BF45F22F43C0F6000367B145F279
:1043F000E23045F29431C0F60000C0F600012246DA
:1044000000F0F8FAB4E600BF45F2D03045F294313E
:10441000C0F60000C0F600011A4600F0EBFAA7E66D
:10442000012126E0012158E745F23242C0F60002A0
:1044300010E000BF45F20342C0F600020AE000BFF0
:1044400045F22542C0F6000204E000BF45F22F42CB
:10445000C0F6000245F24240C0F60000214600F0DE
:1044600057F985E6022104E0022136E70627D5E563
:10447000032145F24E42C0F60002515C00297FF450
:1044800033AF002175E700BF032126E70727C5E505
:10449000042122E70827C1E50927BFE50A27BDE572
:1044A000554152540000000052585F4F5645524645
:1044B0004C4F570048454C4C4F00000050494E4768
:1044C00000000000434D44004241445F54524143C8
:1044D0004B0000004241445F464F524D41540000A2
:1044E0004241445F53494445000000004E4F545F31
:1044F0004553544F5000000040F22411C2F2000115
:104500008A689AB100681368984218BF7047888813
:10451000CB88013000F07F00984209D1012008705B
:10452000013110460122FFF735B900BF704700BFC7
:1045300080B591F801C0B1F804E040F2D813C2F29E
:10454000000303F80EC08880BDE8804001311046AA
:104550000122FFF71FB9000040F22411C2F200014E
:104560008868002808BF704701310122FFF712B99F
:1045700081B090F84210222921D183680246B3F518
:10458000805F09D152F8281F52F8183C002B63D0E5
:1045900003685B680AE000BF52F8281F13B903697B
:1045A000002BF5D003685B6803F07F030B70116884
:1045B00001311160C18D01390A04C18502D001B0F9
:1045C000704700BF0168CA6822F02002CA60CA684A
:1045D00022F48072CA604A6922F001024A612021F5
:1045E00080F8421000214163026B012A3CD1016333
:1045F000016851E8031F026821F0100142E803132B
:10460000DBB1016851E8031F026821F0100142E8A4
:10461000031393B1016851E8031F026821F01001F0
:1046200042E803134BB1016851E8031F026821F00F
:10463000100142E80313002BDAD101680A68D206A0
:1046400006D5002200920A680092496800910099FC
:10465000818D01B0FEF730BD026852686FF35F22B2
:1046600021F8022B8162A5E701B0FFF7BDB8000079
:1046700045F29A30C0F6000000F0BCB9014601A036
:1046800000F0B8B92441434B2C434D442C535441C2
:1046900052542C25750D0A00014601A000F0AAB95C
:1046A0002441434B2C434D442C53544F502C2575DF
:1046B0000D0A0000034645F24E4045F25342C0F653
:1046C0000000C0F60002002908BF024601A01946FA
:1046D00000F090B92441434B2C434D442C53544F8C
:1046E000502C25752C25730D0A000000014601A0F1
:1046F00000F080B9244556454E542C42554D504546
:10470000522C25752C545249474745520D0A00003A
:1047100013460A460029014606D045F2E230C0F6AB
:10472000000000F067B900BF45F2D030C0F60000CD
:104730001A4600F05FB900002DE9F04F89B08346BA
:10474000012091460691FDF749FA82460220FDF7C5
:1047500045FA8046FDF7E0FE0546FDF7E5FE074613
:10476000FDF7EAFE0646FDF7EFFE04461FA207A886
:1047700008215346CDE90085CDE902760494FBF784
:10478000ADFDBBF1020F15D1B9F1000F12D045F20A
:104790001247C0F6000745F24141069B22A0C0F631
:1047A000000107AACDE9007900F024F909B0BDE8BD
:1047B000F08F00BF45F2414010A2BBF1020F11A1E2
:1047C000C0F6000008BF0246BBF1010F18BF11463A
:1047D00045F21247069BC0F600070CA007AA0097F7
:1047E00000F008F909B0BDE8F08F00BF2575257508
:1047F00025752575257525750000000049444C4533
:104800000000000052554E4E494E47002454454C7E
:10481000454D455452592C25732C25732C25752C48
:1048200025730D0A000000002454454C454D4554A5
:1048300052592C25732C25732C25752C25732C256A
:10484000750D0A0040F29010C2F20000FEF738BC6D
:10485000FEE7000090B0FEF78BF806AC201D242187
:10486000FBF7B4FE0220069001200A9010200B9066
:10487000002620460D96FEF709FA38B1EFF31080B6
:1048800072B6FDF729FE00BFFEE700BF0F2501A8A5
:104890000021CDE90156CDE903660596FEF7F0F853
:1048A00030B1EFF3108072B6FDF716FEFEE700BFE1
:1048B000002741F21800CDE90877CDE90677C4F268
:1048C000020001684FF0020941F004010160016833
:1048D00040F6004801F00401019101990168C4F219
:1048E000010841F0080101600168002201F008019F
:1048F0000191019901684FF2080A41F0010101603C
:10490000006800F00100019001980420C4F2010049
:10491000016869F31A61016040464FF20801FEF731
:104920000DF8A8F5806630464FF4184100224FF488
:10493000184BFEF703F8CDE9065706AD01243046C3
:1049400029460894FDF7ECFE40462946CDE906A429
:10495000CDE90879FDF7E4FE30462946CDE906B4F5
:10496000CDE90879FDF7DCFE4FF44470CDE9060788
:10497000404629460894FDF7D3FEC020CDE906073E
:10498000404629460894FDF7CBFE2020CDE90607D6
:10499000404629460894FDF7C3FE40F2901008F502
:1049A0003051C2F200000C234FF47A3280E88600C6
:1049B000C0E90377C0E90537C761FEF739FE38B1B2
:1049C000EFF3108072B6FDF787FD00BFFEE700BF72
:1049D000252001210022FEF717F82520FEF702F816
:1049E00040F29010C2F20000FCF7E6FDFCF738FE42
:1049F000FCE7000083B0B0B599B004461DA80EC016
:104A00001DAB01A8602122460093FBF749FC40F250
:104A10002410C2F2000084684CB101AD2846FBF7B7
:104A2000B6FD82B2204629463223FEF7DFFE19B0DA
:104A3000BDE8B04003B070475FEA400C08BF91F09A
:104A4000000F4FEA8C234FEAC12243EA51514FEA4B
:104A50001C5018BF00F5F0404FEA300018BF41F07D
:104A600000415FEA6C5C00F02980BCF1FF3F08BFA9
:104A700040F080407047130C06BF12044FF0100C3A
:104A80004FF0000C130E04BF12020CF1080C130FB0
:104A900004BF12010CF1040C930F04BF92000CF13F
:104AA000020CD30F04BF52000CF1010C11464FF061
:104AB0000002A0F11F00A0EB0C00704711F0004FA6
:104AC00008BF704731F000413FF4D5AF0B0C06BF73
:104AD00009044FF0100C4FF0000C0B0E04BF09023C
:104AE0000CF1080C0B0F04BF09010CF1040C8B0F27
:104AF00004BF89000CF1020CCB0F04BF49000CF17C
:104B0000010CCCF1200322FA03F341EA030102FA7B
:104B10000CF2A0EB0C0000F10100704723F07F477E
:104B200020F07F4C80EA030000F00040ACEB07036C
:104B300003F57C5303F1FF032DE9804909B44FEAE3
:104B4000144324EA03484FEA154B25EA0B4E0FF2B3
:104B5000042606EB13273E7803FB0667C7F500071C
:104B600007FB06F64FEAD64606F102064FEA54372F
:104B700007FB066CCCF1005C4FEA1C472CEA074CA3
:104B80000CFB06F507FB06F404EB15464FEA9616F8
:104B900049085FEA320234BF00204FF000404FEA7C
:104BA000D13706FB07FC4FEA1C4C0CFB0BF7D21B62
:104BB00003FB0CF761EB07010CFB0EF7B0EB0740B2
:104BC00072EB17420CFB08F734BFA2EB0742B2EBC3
:104BD000074261EB17414FEA0C444FEA910706FB8D
:104BE00007FC4FEA1C4C0CFB0BF7B0EBC74072EB19
:104BF000573203FB0CF734BFA2EBC742B2EBC742FC
:104C000061EB57310CFB0EF7B0EBC70072EB57723C
:104C10000CFB08F734BFA2EBC702B2EBC70261EB93
:104C200057714FEA816141EA92114FEA826242EA8A
:104C300090124FEA806004EBCC04039F4FEAD13717
:104C400006FB07FC4FEA1C4C0CFB0BF7D21B03FBCB
:104C50000CF761EB07010CFB0EF7B0EB074072EBB2
:104C600017420CFB08F734BFA2EB0742B2EB074236
:104C700061EB17414FEA8C5504EB9C244FEA9107F6
:104C800006FB07FC4FEA1C4C0CFB0BF7B0EBC740D4
:104C900072EB573203FB0CF734BFA2EBC742B2EB07
:104CA000C74261EB57310CFB0EF7B0EBC70072EB5C
:104CB00057720CFB08F734BFA2EBC702B2EBC70276
:104CC00061EB57714FEA816141EA92114FEA8262CA
:104CD00042EA90124FEA806015EB4C2544F1000443
:104CE0004FEAD13706FB07FC4FEA1C4C0CFB0BF7D5
:104CF000D21B03FB0CF761EB07010CFB0EF7B0EBCB
:104D0000074072EB17420CFB08F734BFA2EB0742D7
:104D1000B2EB074261EB17414FEA813141EA924120
:104D20004FEA823242EA90424FEA80304FEA0C76F4
:104D300015EB1C1544F1000448EA03434EEA0B4806
:104D40004FF0000EB2EB080C71EB030724BF624674
:104D500039464EEB0E0E4FF0000B00185241494100
:104D60004BEB0B0BB2EB080C71EB03077BF1000B69
:104D700024BF624639464EEB0E0E4FF0000B001872
:104D8000524149414BEB0B0BB2EB080C71EB0307A3
:104D90007BF1000B24BF624639464EEB0E0E51EA02
:104DA000020718BF46F0010616EB0E7655F1000219
:104DB00054F1000103D5BDE88901BDE80088BDE8D4
:104DC0008901BDE80048B619524141EB0101A3F148
:104DD0000103704780807F7E7D7C7B7A797877764F
:104DE00076757473727171706F6E6E6D6C6C6B6AC8
:104DF0006A69686867666665646463636261616066
:104E0000605F5F5E5E5D5D5C5C5B5B5A5A595958E2
:104E1000585757565655555554545353525252514C
:104E2000515050504F4F4F4E4E4D4D4D4C4C4C4BA2
:104E30004B4B4A4A4A4949494848484747474746E9
:104E40004646454545444444444343434342424225
:104E5000424141419C46002B30D477002BD04FEA91
:104E600037071CB503B44FF010004FF01001BAF132
:104E7000000F06D0BCF1000FDCBF40F0080040F08E
:104E800008014FF000000FBCBDE810400BF1010B12
:104E9000BBF1010F08BF5FEA170722BF12F1010241
:104EA00011F101014FF0004143F1000300F0004017
:104EB00043EA00007047F9D35708D0E746EA0646B0
:104EC0004FEA164613F1400F1FDD13F1200FDFBF2D
:104ED00016430A46002120335B42BED0C3F12007AF
:104EE00046EA06464FEA164602FA07F746EA07067A
:104EF00022FA03F2C3F1200701FA07F742EA070298
:104F000021FA03F14FF00003A7E746EA020646EA5A
:104F100006464FEA164646EA0106BCBF46EA064682
:104F2000360C4FF000034FF000024FF0000194E701
:104F30002DE9804C70B49A46934691E8380007C832
:104F400031EA400C48BF34EA430C03D5FFF7E6FDD5
:104F5000FFF780FFF0BCBDE8008C2DE9804C70B4F9
:104F60009A46934691E8380007C810F0804F08BF72
:104F700013F0804F03D100F005F8FFF76BFFF0BC92
:104F8000BDE8008C20F07F4723F07F4C80EA0300CF
:104F900000F0004007EB0C03A3F57C53A3F1FE03E4
:104FA00092F0000F00F0B38095F0000F00F07780D2
:104FB0002DE901494FEA114021EA00484FEA144621
:104FC00024EA064700FB06FC08FB06F607FB08F888
:104FD00018EB06484CEB164C00FB07F718EB07489C
:104FE0004CEB17404FEA124B22EA0B4E4FEA1546A4
:104FF00025EA06470BFB06FC0EFB06F607FB0EFE3A
:105000001EEB064E4CEB164C0BFB07F71EEB074E48
:105010004CEB174B18EB0B0840F1000018EB0E0B94
:1050200058EB000840F100008F1A4FF000014FF0DC
:1050300000063CBFC943661B14BFB5EB040C00213E
:105040003CBFC943F61B4FEA174427EA04454FEA21
:105050001C472CEA074C04FB076205FB07F70CFB17
:1050600005F616EB074642EB174204FB0CFC16EB69
:105070000C4642EB1C421BEB060658EB0202414178
:105080004EEA8E0E46EA9E0601D5BDE80189B619A4
:10509000524141EB0101A3F10103BDE801894FEA4F
:1050A000144524EA05464FEA114721EA074C05FB5F
:1050B00007F406FB07F70CFB06F111EB074144EB85
:1050C000174405FB0CFC11EB0C4144EB1C444FEA6C
:1050D000124722EA074C05FB07F206FB07F70CFB19
:1050E00006F616EB074642EB174205FB0CFC16EBE7
:1050F0000C4642EB1C456A1854F1000148BF70474A
:10510000B619524141EB0101A3F10103704795F03B
:10511000000F37D04FEA114221EA02464FEA144706
:1051200024EA074C02FB07F106FB07F70CFB06F429
:1051300014EB074441EB174102FB0CFC14EB0C444D
:1051400041EB1C414FEA154725EA074C02FB07F5E6
:1051500006FB07F70CFB06F616EB074645EB174573
:1051600002FB0CFC16EB0C4645EB1C42121951F1EC
:10517000000148BF7047B619524141EB0101A3F14C
:10518000010370474FEA144524EA05464FEA1147E8
:1051900021EA074C05FB07F106FB07F70CFB06F2BB
:1051A00012EB074241EB174105FB0CFC12EB0C42E2
:1051B00051EB1C414FF0000648BF7047921841EB7D
:1051C0000101A3F101037047490050EAC12018BF53
:1051D00004204A0D18BF40F0010040F2FF72B2EB0C
:1051E000515F08BF40F00200012808BF052070474A
:1051F00030380A2801D20120704700207047000093
:1052000010B500290AD00878002807D0054878444E
:10521000FCF78AF9002801D0002010BD024878442C
:1052200010BD0000720200006A02000010B50029E3
:105230000AD00878002807D005487844FCF774F9AC
:10524000002801D0002010BD0248784410BD0000A5
:10525000560300004E030000FBF771BDFBF7A6BE2E
:10526000040000080000000000000002000100002F
:105270001000000000000000000000003031323358
:10528000343536373839414243444546403058007A
:1052900030313233343536373839616263646566AC
:1052A0004030780030313233343536373839616246
:1052B00063646566787000303132333435363738A0
:1052C0003941424344454658500000000240000026
:1052D000000000A00000000005400000000000C821
:1052E000000000000C4000000000409C0000000096
:1052F000194000000020BCBE000000003440000047
:10530000BFC91B8E00000004B5400000504BCFD039
:105310006607E2CF010000006C4100003E8251AA06
:10532000DFEEA73401000000D9420000DCB5A0E2A6
:105330003A301F97FFFFFFFFB4450000FD25A0C8CE
:10534000E9A3C14FFFFFFFFFFF3F00000000008007
:1053500000000000FF3F000000000080000000008F
:105360000000000000000000010203040607080915
:105370000000000001020304010202030405060705
:1053800008090A0B0C0D0E0F1010434152474F5FD6
:105390004A414D005354415254002441434B2C4345
:1053A0004D442C52455345545F4553544F500D0ABC
:1053B000002448454C4C4F5F41434B2C53544D33D4
:1053C000322C4F4B2C676F6F64206A6F620D0A009E
:1053D000244E41434B2C434D442C25732C25730DF7
:1053E0000A00244E41434B2C434D442C25732C255D
:1053F000752C25730D0A0024504F4E472C256C75D3
:105400000D0A00494E56414C4944004241445F490F
:1054100044004E4F4E4500494E56414C49445F545E
:105420005241434B0053544F505F4C4F434B004F3E
:105430004B004E4F5F434152474F00524553455436
:105440005F4553544F500042555A5A4552004C45FF
:1054500046540052494748540042555359000000F1
:10546000B0550008000000201000000050010008A6
:10547000C0550008100000208008000070010008DE
:105480001001000043000000F8FFFFFF0040404013
:105490004040404040404141414141404040404007
:1054A00040404040404040404040404040050202B3
:1054B0000202020202020202020202020220202072
:1054C00020202020202020020202020202029090CE
:1054D00090909090101010101010101010101010CC
:1054E0001010101010101010020202020202888820
:1054F000888888880808080808080808080808082C
:105500000808080808080808020202024000000013
:10551000000000000000000000000000000000008B
:10552000000000000000000000000000000000007B
:10553000000000000000000000000000000000006B
:10554000000000000000000000000000000000005B
:10555000000000000000000000000000000000004B
:10556000000000000000000000000000000000003B
:10557000000000000000000000000000000000002B
:10558000000000000000000000000000000000001B
:105590001C00000043000000F8FFFFFF0C000000AB
:1055A0000E0000000F0000002E00000000000000B0
:1055B000010000001000000000127A00000000004E
:04000005080000ED02
:00000001FF
