:020000040800F2
:10000000D007002061020008F13700088D37000892
:10001000ED370008E1230008594300080000000004
:10002000000000000000000000000000F937000898
:10003000E523000800000000F5370008FD37000840
:100040007B0200087B0200087B0200087B0200089C
:100050007B0200087B0200087B0200087B0200088C
:100060007B0200087B020008E92300087B020008ED
:100070007B0200087B0200087B0200087B0200086C
:100080007B0200087B0200087B0200087B0200085C
:100090007B0200087B0200087B020008F1230008B5
:1000A0007B0200087B0200087B0200087B0200083C
:1000B0007B0200087B0200087B0200087B0200082C
:1000C0007B0200087B0200087B0200087B0200081C
:1000D0007B0200084D4300087B0200087B020008F9
:1000E0007B0200087B0200087B02000800F002F897
:1000F00000F0A6F814A696E8000CB244B344DA4522
:1001000001D100F09DF8BAE80F000FA696E8300084
:10011000A5EB040504EB0607AAEB0704A7F101070A
:100120004FEA15154FEA3414A4F10104AC4201D38F
:1001300000F086F813F0010F18BFFB1A43F001031B
:1001400000F001F8DBE71847B04F0000D04F000087
:10015000103A24BF78C878C1FAD8520724BF30C8F3
:1001600030C144BF04680C60704700007047000055
:100170000023002400250026103A28BF78C1FBD8B0
:10018000520728BF30C148BF0B6070476E2900F08E
:100190000E83702900F05384662904F0AB8665292C
:1001A00004F0A886672904F0A586612904F0A486D6
:1001B00003681B0A28BF41F08001692900F0AE8066
:1001C000642900F0AB80752900F0A8806F2900F049
:1001D000E183782900F01F84E92900F07B83E4297A
:1001E00000F07883F52900F07583EF2900F0DE83B5
:1001F000F82900F01E840368DB0928BF41F0800164
:10020000632901F05B80732901F06080E32901F02C
:100210006B80F32901F07080002070471FB500F05B
:100220006DFC04000020002104F038FE401C6060DA
:100230000020002104F048FEE0601FBD10B510BD95
:1002400001F090F81146FFF7E9FF04F087F801F09C
:1002500061F903B4FFF7F2FF03BC01F0A5F9000058
:100260000948804709480047FEE7FEE7FEE7FEE74A
:10027000FEE7FEE7FEE7FEE7FEE7FEE70448054986
:10028000054A064B7047000001380008ED000008E1
:10029000D0010020D0070020D0030020D003002090
:1002A0007CB51D4616460C00009007D04142A14285
:1002B00002D32044401E01E04FF0FF30064B7B4448
:1002C0002A4669460190304600F08BFA002C02D095
:1002D000009A002111707CBD470500000FB41CB5C9
:1002E0000C0007AA009007D04142A14202D320444B
:1002F000401E01E04FF0FF30074B7B446946019000
:10030000069800F06EFA0021002C01D0009A1170BE
:100310001CBC5DF814FB00000B0500002DE9F0414A
:100320000646002410687529314616A510D000F045
:10033000AAF9002802DA404213A507E031688A07CB
:1003400001D512A502E0490704D511A5012401E059
:1003500000F0A2F900210A2206F1240709E0B0FB0F
:10036000F2FCB0FBF2F302FB1C003030785418466C
:10037000491C0028F3D123462A463046BDE8F04107
:1003800000F0BCB9000000002D0000002B000000B0
:10039000200000002DE9F05F894604464FF0000A76
:1003A000DFF874B1FB44C0F820A02046E16888471C
:1003B000002874D0252806D0D4E901219047206A6E
:1003C000401C2062F1E700265F462046E16888472E
:1003D0002028054607DB312D05D2781910F8200CAE
:1003E00008B10643F1E7B00701D526F00406C4F8CA
:1003F0001CA00027C4F818A02A2D09D0284604F014
:1004000045FD38B304EB8708303DC8F8185019E0B3
:1004100059F8041B204604EB87029161E168884784
:10042000012F054618D1E069002820DA26F02006C1
:100430001DE0D8F8180000EB800005EB40003038D4
:10044000C8F818002046E1688847054604F01EFDFC
:100450000028EED1012F0AD02E2D08D12046E168C8
:1004600088477F1C0546022F46F02006C4DBA069A2
:10047000002803DA404246F00106A061F00701D0EF
:1004800026F010066C2D0BD0682D09D04C2D39D0DC
:100490006A2D35D0742D35D07A2D33D016E038E062
:1004A000E1682F4620468847B842054609D16C2F9F
:1004B00026D04FF48060E168064320468847054611
:1004C00004E06C2F1AD04FF4807006430DB3A5F1F1
:1004D0004100192802D8203546F400664A462946CC
:1004E000204626604E46FFF751FE80B101280BD012
:1004F000F61D26F0070000F1080956E74020E4E762
:100500008020D8E70020D6E706F104094DE7284609
:1005100052E7206ABDE8F09F544B00002DE9F05FE0
:1005200093460F4680460446002600F081F8D0F836
:100530000090824614F8015B2DB100F071F800685C
:10054000405DC007F6D12B2D02D02D2D1AD0641E90
:100550000021CAF800105A463946204600F07AFABF
:10056000014627B13868A04201D1C7F80080DAF807
:100570000000022809D0CAF80090700505D548424D
:10058000BDE8F09F46F48066E2E70846F8E710B55C
:10059000431C02E010F8011B71B18107FAD14FF042
:1005A000013202C88C1A8C4314EAC211F9D0C01A65
:1005B0000A0603D0C01E10BDC01A10BD0A0401D027
:1005C000801E10BD0902FCD0401E10BD4FF000027D
:1005D00000B5134694469646203922BFA0E80C5039
:1005E000A0E80C50B1F12001BFF4F7AF090728BF14
:1005F000A0E80C5048BF0CC05DF804EB890028BF90
:1006000040F8042B08BF704748BF20F8022B11F0B8
:10061000804F18BF00F8012B704770477047704734
:1006200010B500F06BFA001D10BD00BF714800004E
:10063000004870471000002070B5044685690068C6
:10064000C10601D5302600E02026C00707D070BDC6
:10065000D4E9012130469047206A401C20626D1E7B
:10066000F6D570BD70B5044685690078C00707D11E
:1006700070BDD4E9012120209047206A401C2062EF
:100680006D1EF6D570BD09684A0501D540B27047A8
:10069000C905FCD500B2704709684A0501D5C0B24A
:1006A0007047C905FCD580B2704770B50C46054649
:1006B000012A05D02878800600D5EA69002302E0E7
:1006C000012305E05B1C934202D2E05C0028F9D1D3
:1006D000A869E618C01AA861286A18442862284642
:1006E000FFF7AAFF04E0D5E9012114F8010B9047B8
:1006F000B442F8D32846FFF7B5FF70BD2DE9F047A7
:100700000D4699469246044600F124080168880681
:1007100004D5E06921F01001216000E00120A84229
:1007200001DD471B00E00027A1697A1902EB0900EF
:10073000081AA0612078C00602D42046FFF77CFF8B
:10074000002608E0D4E901211AF806009047206A43
:10075000401C761C20624E45F4DB2078C0060AD58A
:100760002046FFF769FF06E0D4E9012130209047D9
:10077000206A401C2062381EA7F10107F4DC07E064
:10078000D4E9012118F805009047206A401C206236
:10079000281EA5F10105F3DC2046FFF763FF207852
:1007A000000602D50220BDE8F0870120FBE71168B2
:1007B0000268006A530501D508700AE0D30501D527
:1007C000088006E0130603D5C217C1E9000200E065
:1007D000086001207047000001694A1C0261087826
:1007E000704700B58FB0CDE9013100210591054971
:1007F0007944CDE9031011466846FFF7CBFD0FB0F1
:1008000000BD0000E5FFFFFFD1E900239A4202D2BC
:10081000531C0B60107070472DE9FF5F15468A4628
:100820000446DFF8AC80F8440027D8E900103E46C3
:10083000CDE9001010E03AF816106A4602A800F060
:100840006DFD411C07D02178890603D5E26939186E
:1008500091420DD80744761C2078800602D5E069C5
:10086000B84205DDAE42E6DB3AF816000028E2D1D8
:10087000A069C01BA0612046FFF7DEFED8E900108A
:10088000CDE90010002017E03AF818106A4602A8D7
:1008900000F044FDB0F1FF3F81460BD000250DF183
:1008A000080B05E0D4E901211BF8050090476D1CF9
:1008B0004D45F7D308F10100B0428046E4DB206AE1
:1008C000384420622046FFF7CDFEBDE8FF9F0000C0
:1008D000E64600002DE9F0418046D21D22F00702D5
:1008E0000025D2E90002F52915A614D0011E72F1E7
:1008F000000106DA0023D0EB030063EB020211A62D
:1009000008E0D8F800108B0701D50FA602E04907D0
:1009100001D50EA601251146002408F1240704E0A4
:1009200000F0F0F830323A55641C50EA0102F7D179
:100930002B46324621464046BDE8F041FFF7DEBE79
:10094000000000002D0000002B000000200000002F
:1009500030B4002100F1240408E002F00705D208B9
:10096000303542EA4372DB086554491C52EA0305FC
:10097000F3D10468002310A2250708D504F0200451
:100980000C4304D0C46901230CA2641EC46130BCB2
:10099000FFF7B4BE10B5044621461068FFF77CFE91
:1009A00002462046BDE810400023D1E7D21D22F0C8
:1009B0000701D1E90023CBE7000000003000000070
:1009C000F0B40D460188090502D5214C7C4402E0B3
:1009D0001F4C7C440E34002100F1240608E002F094
:1009E0000F071209E75D42EA03721B097754491C9D
:1009F00052EA0307F3D102780023120704D5702DC1
:100A000006D009B1022311342246F0BCFFF776BEAE
:100A100001231034F8E770B504460D4621461068EE
:100A2000FFF73AFE024629462046BDE87040002303
:100A3000C6E7D21D22F00703D3E90023C0E703680D
:100A4000126843F0200303600823C3610023B7E763
:100A5000484500002DE9F05F824615468B46002789
:100A60000AF10104B9460078302801D09DB113E0A5
:100A700014F8010B0127782803D0582801D045B17C
:100A80000AE00DB1102D07D1002714F8010B102535
:100A900002E0082500E00A250026B0460EE005FB2E
:100AA000080005FB06F101271FFA80F801EB10464C
:100AB000B6F5803F00D3B94614F8010B294600F083
:100AC0001FFC0028EBDABBF1000F05D00FB1641E4C
:100AD00000E05446CBF80040B9F1000F06D0FFF714
:100AE000A7FD02210160C81EBDE8F09F48EA06404C
:100AF000FAE70000004870471000002000487047E7
:100B00003000002030B5B0F10A0271F100034FEA65
:100B1000900E4EEA817EB0EB0E0061EB91014FEA40
:100B2000101E4EEA017E10EB0E0041EB11114FEA50
:100B3000102E4EEA016E10EB0E0041EB11214FEA30
:100B4000104E4EEA014E10EB0E0041EB11414018E1
:100B500041F100014FEAD00040EA41704FEAD10173
:100B60004FEA810444EA907410EB800544EB0104E1
:100B70006D1944EB0404521BA3414FF0000348BF1E
:100B80000A3200D530BD401C41F1000130BD2DE9D5
:100B9000FF4F0C461E464FF0FF378BB0D2E90001E5
:100BA000DDF860800A908A46C1F30A5505B93D46D2
:100BB000002108464FF00000BAF1000F00F4400099
:100BC00005DA00EB80004FF4400101EA50004FEAE3
:100BD0009059B9F1010F00DDB9460A9850EA4A0070
:100BE0000ED044F61050A5F2FF3545432F14B8F14E
:100BF000000F1ED07542291E1EDDC9F100021CE047
:100C0000B8F1010F4FF0000001D0302103E0F243B2
:100C100005E02154401CB042FBDB3046002200219D
:100C200021540B99C1F80880C1E900200FB0BDE83C
:100C3000F08FBD1B6D1CDEE74A4600DA694206A84C
:100C400000F0F6FB06AB93E8070003AB83E8070070
:100C500050460A9903F03EFD8DE80700A0F50050CC
:100C60001F3800900398002D0ADD42F21F014A460A
:100C70000844002303A90390684603F0A7FF09E096
:100C8000A0F500504A461F38002303A90390684688
:100C900003F0B1FF8DE807000004000C03D04FF013
:100CA000FF30410800E01046B8F1000F03D00022E9
:100CB000009215461EE0751E05D4FFF723FF303263
:100CC00062556D1EF9D5B3460122084302D00022B9
:100CD0007F1C04E02078302801D100227F1E002AEA
:100CE000099784D01DE0112D07DAFFF70BFF303292
:100CF00062556D1C50EA0102F5D1084302D00098FC
:100D0000C8B10EE00021681E05E0235C625C6354FC
:100D10002254401E491C8142F7DBAB46A81B401EF3
:100D20000990002004F80B000B98099AC0F808807D
:100D3000C0E9002B7AE711264FF0000857E72DE9AC
:100D4000F04F88460446D21D22F0070191B0D1E948
:100D50000001CDE90A0104F085F802460B98C00FA6
:100D600001D02D2007E02068810701D52B2002E06B
:100D7000202101EAC000032A099001D0072A05DBDF
:100D800003464146204600F013FB0BE12078800625
:100D900001D5E06900E00620B8F1650F814606D074
:100DA000B8F1660F18D0B8F1670F70D131E00020AC
:100DB000B9F1110F009001DB112301E009F10103EA
:100DC0000AAA01A90CA8FFF7E2FEDDE90C700026D3
:100DD00009F10105834647E001204B4600904FF0A2
:100DE00000470AAA01A90CA8FFF7D1FEDDE90DB062
:100DF0000C995D46002610B909F101000D18B9EBF8
:100E0000050003D4C0F1FF3609F10105A5EB090087
:100E10002BE0B9F1010F01DA4FF001090020B9F11F
:100E2000110F0090484601DD112300E003460AAA95
:100E300001A90CA8FFF7ABFEDDE90C704D460026BA
:100E40008346207800070AD4AB4500DA5D4601A846
:100E5000012D04DD411911F8011C302907D04F453F
:100E600002DA17F1040F04DA012082460FE06D1E4A
:100E7000EEE7002F02DCED1B3E4403E0781CA842A5
:100E800000DD7D1CB81B00F1010A4FF000472078FF
:100E9000000703D4AA4501DB4FF0FF3A0021B7F168
:100EA000004F0DF143088DF8431024D002202B236E
:100EB000002F01DA7F422D230A21021EA0F101003A
:100EC00000DC5FB197FBF1FC97FBF1F201FB1C7CAE
:100ED00017460CF1300C08F801CDEEE7A8F101003F
:100EE00003702188090501D5452100E06521A0F1A5
:100EF000010800F8011C09980FA9A1EB0807FF1DC4
:100F000000B10120411901EBEA70A1693844081AC7
:100F1000401EA0612078C00602D42046FFF78CFB5B
:100F2000099828B1D4E901219047206A401C206229
:100F30002078C00622D52046FFF77EFB1EE0002E5B
:100F400004DBB34502DD01A8805D00E03020D4E978
:100F500001219047206A401C2062761CAAF1010002
:100F60005FEA000A0AD1FFF7C9FDC0680168405C6A
:100F7000D4E901219047206A401C2062281EA5F177
:100F80000105DCDC07E0D4E9012118F8010B9047EA
:100F9000206A401C2062381EA7F10107F3DC2046BE
:100FA000FFF760FB032011B041E600002DE9F04F90
:100FB00004460D46D21D22F0070089B0D0E9009703
:100FC0004846394603F04EFF0246F80F01D02D2364
:100FD00007E02068810701D52B2302E0202101EAE8
:100FE000C0038DF820300BB1012000E00020032A5F
:100FF000824601D0072A04DB2946204600F0D8F9B2
:101000003FE12078800601D40D2500E0E569C7F3B3
:101010000A560D2D49DA00214FEA175B08464FF0BA
:101020000000002F00F4400007DA00EB80004FF4CE
:10103000400100EBD07001EA60008115012901DD5B
:101040004FF0FF3100224FEA850CBCF1180F06D398
:101050001346ACF118004FF08052C24003E04FF449
:10106000801323FA0CF30CF10C0CBCF1200F04D309
:10107000ACF1200C09FA0CF001E007FA0CF00029A1
:101080004FF0004801DD18B90FE00ED140450CD3F8
:1010900019EB02095F4121B9404502D19F4329EA7A
:1010A0000209BBEB175F00D0761C2088000502D533
:1010B0007B48784402E07A487844193808AA3023FB
:1010C00002F80A30037C0AF10101002E0AF1020A3B
:1010D00053546A4602DC4FF0300101E04FF0310119
:1010E0004FF001088DF8001002D0A6F2FF3603E0A1
:1010F00059EA470100D06B4E002D02DC2178090728
:1011000004D54FF002082E218DF80110C4460021AD
:101110000BE0C7F303433F01C35C491C6D1E02F89B
:101120000830052908F1010801DA002DF1DC002161
:101130000CE000EB1973491C1B786D1E082902F89E
:1011400008304FEA091908F1010801DA002DF0DC36
:1011500021688B0602D516E0A8F10108E04505DDFF
:1011600002EB080313F8013C302BF5D0B8F1000F67
:1011700009DD02EB080313F8013C2E2B03D109070C
:1011800001D4A8F10108002D05DD3E2102F8081068
:101190006D1E08F10108407C002E02F8080008F1DD
:1011A000010804DA2D20764202F8080002E02B2024
:1011B00002F808000A214FF47A70864208F101080B
:1011C0000BDB96FBF0F3303302F8083096FBF0F3BC
:1011D00008F1010800FB136601E0642E0CDB6420BB
:1011E00096FBF0F3303302F8083096FBF0F308F189
:1011F000010800FB136601E00A2E06DB96FBF1F006
:10120000303002F8080008F1010896FBF1F001FB0C
:101210001060303002F80800A16908F1010808EBFD
:10122000050202EB0A00081AA0612078C00602D469
:101230002046FFF701FA216A08AE01EB0A0020629E
:1012400004E0D4E9012116F8010B9047BAF1010A34
:10125000F7D22078C00602D52046FFF7EDF96E469A
:1012600009E016F8010B3E280FD0D4E90121904780
:10127000206A401C2062B8F10108F2D22046FFF734
:10128000F1F909B00320BDE8F08F206A28442062FC
:1012900003E0D4E90121302090476D1EEBD3F8E73D
:1012A0009D3E000002FCFFFF10B5436913B1AFF390
:1012B000008001E0FFF7F9F9012010BD127800F17C
:1012C00024010A7000224A700122EDE711684FF0F4
:1012D000FF32E9E710B5436913B1AFF3008001E0D5
:1012E000FFF79AFA012010BD128800F124018284D0
:1012F0000022C2840122EDE711684FF0FF32E9E7D6
:101300003A2800D2303820F02002412A01D3A2F13D
:101310003700884201D34FF0FF3070472DE9F0418C
:1013200016460C460546FFF77BF9036893F8010162
:10133000012807D0FF2C12D8185D80B101202C7035
:10134000BDE8F081D3F807013246214603F20713C6
:10135000C7182846BC46BDE8F041002360474FF05F
:10136000FF30EDE77546FFF7C5FBAE460500694661
:10137000534620F00700854618B020B5FEF77EFFE3
:10138000BDE820404FF000064FF000074FF0000886
:101390004FF0000BAC46ACE8C009ACE8C009ACE8C3
:1013A000C009ACE8C00921F007018D467047000074
:1013B0002DE9F0411F46044603260168072A01F47F
:1013C000006004DB08B116A505E016A503E008B12E
:1013D00015A500E015A521F010002060A069C01E31
:1013E000A0610FB1401EA0612046FFF725F94FB163
:1013F000D4E9012138469047206A401C2062C01C75
:10140000206206E0206AFAE7D4E9012115F8010B11
:101410009047761EF8D22046FFF724F9BDE8F08108
:101420004E414E006E616E00494E4600696E660088
:101430002DE9F047814616468AB0354878440DC8F4
:101440008DE80D0032487844801C03AC0DC884E858
:101450000D0041F69B300844372190FBF1F290FBE0
:10146000F1F5A5F1800501FB12041B3C02D5644295
:10147000012000E00020DFF898A080460027FA4411
:10148000AAF1BE0A0EE0E0070AD03246684607EB32
:10149000470101230AEB810103F0ADFB8DE8070052
:1014A00064107F1C002CEED1194F7F44AE3F19E031
:1014B000E80715D007EB04100DF1180A90E80E00AC
:1014C0008AE80E00C068F04201D1981908903246AF
:1014D000012306A903A803F08EFB03AB83E80700F2
:1014E0006D10641C002DE3D14FF0010332466946B4
:1014F000B8F1000F03A802D003F068FB01E003F08D
:101500007AFBC9E90001C9F808200AB0BDE8F087F4
:10151000A43B000010B50446AFF300802046BDE8B0
:101520001040FEF796BE00004FF0013C50F8042B2F
:1015300051F8043B9A4221D1A2EB0C03934313EAE6
:10154000CC1317D150F8042B51F8043B9A4215D113
:10155000A2EB0C03934313EACC130BD150F8042BEA
:1015600051F8043B9A4209D1A2EB0C03934313EACE
:10157000CC13DBD04FF00000704700BFD01A01BA87
:10158000B1FA81F101F0180122FA01F0CB40DBB28F
:10159000C0B2C01AC1F120012CFA01F3D11A914353
:1015A00011EAC311E6D1704701491820ABBEFEE72E
:1015B0002600020070470000B0B5044600F036F97E
:1015C00000F0A8FA204602F039F902F035FD40F6A5
:1015D0000044C4F2010420464FF4007101F0ACF85D
:1015E00040F27005C2F20005014605F1080002F064
:1015F000CFF820464FF4807101F09EF8014605F1C6
:10160000140002F0C5F82046402101F095F801468B
:1016100005F1200002F0BCF82046802101F08CF892
:10162000014605F12C0002F0B3F82046202101F01C
:1016300083F8014605F1380002F0AAF8204610218F
:1016400001F07AF8014605F1440002F0A1F801F03A
:101650007FF8286001F07CF86860B0BD70B582B09A
:1016600040F60045C4F2010528464FF4007101F030
:1016700063F840F27006C2F2000606F10804014663
:101680002046002202F094F828464FF4807101F0C1
:1016900053F8014606F11400002202F089F82846AA
:1016A000402101F049F8014606F12000002202F035
:1016B0007FF82846802101F03FF8014606F12C0012
:1016C000002202F075F82846202101F035F8014685
:1016D00006F13800002202F06BF82846102101F0D4
:1016E0002BF8014606F14400002202F061F8307C3C
:1016F00028B92046002102F055F8002860D000F0FB
:10170000F3F9032808D101F023F87168401A41F277
:101710008831884203D208E00A2000F015FD10202D
:1017200000F08EF801F014F8706000F0CBFA0DF1C3
:10173000050000F0ABFA08B30DF1050408E000BFA6
:101740009DF8060002F01CFD204600F09FFAA8B1AB
:101750009DF80500032809D00228F1D00128F3D113
:101760009DF8060002F0FEFCEEE700BF9DF80600C3
:101770009DF8071002F012FDE6E700BF00F08CF8BC
:1017800000F0E6FF3168401AB0F57A7F15D300F01B
:10179000DFFF306000F0A8F90446022804D100F011
:1017A0008DF9054601E000BF002500F097F90346DA
:1017B00020462946002202F03BFD02B070BD00BF6A
:1017C00096F8400020B10B2000F0BEFC012006E09E
:1017D00096F84C0050B10C2000F0B6FC022002F04C
:1017E000F9FC022000F02CF89FE700BF307F38B1F1
:1017F00000F034FA02F014FD082000F021F894E71C
:1018000096F8280030B100F0D1F9042000F018F863
:101810008BE700BF96F8340000283FF486AF00F055
:101820008DF9012808BF02F097FC7EE740F60040E2
:10183000C4F201004FF47041002200F083BF0000A9
:10184000B0B540F60045C4F201050446C0F30012ED
:1018500028464FF4805100F075FFC4F3C0022846BB
:101860004FF4005100F06EFFC4F3800228464FF49D
:10187000804100F067FFC4F3400228464FF4004166
:1018800000F060FF40F2C004C2F2000401202070AA
:1018900000F05EFF6060B0BDB0B540F2C004C2F2BF
:1018A00000042078012811D100F052FF6168401A2D
:1018B000C82838BFB0BD40F60040C4F201004FF464
:1018C00070410022002500F03DFF2570B0BD0000F2
:1018D0002DE9F041C11EC9B2FE293CBF0320BDE87D
:1018E000F08140F2C806C2F20006B178032904BFB5
:1018F0000220BDE8F081317900291CBF0520BDE838
:10190000F08106EB001717F8201F012411B12046C3
:10191000BDE8F0810025BD60FD813D60BD80804651
:1019200000F0C4FC0220B0704046BD813C70BD6038
:10193000C7F801507D7100F0B9FC00242046BDE8D5
:10194000F0810000C21ED2B2FE2A3CBF03207047C5
:10195000F0B581B040F2C805C2F20005AA78032AAA
:1019600002D1022001B0F0BD2A791AB1052001B0E0
:10197000F0BD00BF05EB001616F8202F12B10120B4
:1019800001B0F0BD0246307B80B3707B0138032884
:101990002CD80C461746DFE800F0030F070B00BFFA
:1019A00000F0D6FC0AE000BF00F0EAFC06E000BF51
:1019B00000F0F2FC02E000BF00F0D6FC3A462146FF
:1019C000A0B1707B841E00F0FD0304F0FD04B4FAA6
:1019D00084F4012B4FEA541418BF6300934205D1DD
:1019E000002867D0012A0AD03AE000BF0C4617460B
:1019F000012A11D100F0ACFCA0B101202146032244
:101A00003270C9B170704FF440700024F17370806F
:101A1000347100F0B5FC3BE000F0A6FCC0B1022040
:101A200021461DE000F0ACFC002843D003202146F5
:101A3000032200293270E5D1002170704FF48070CC
:101A4000F17370803171012400F082FC20E000BF4E
:101A500000F0A2FC00284FF0040021463FF482AFC2
:101A60000322327051B170704FF480600024F17322
:101A70007080347100F090FC0AE000BF00217070AB
:101A80004FF40070F17370803171012400F06CFC30
:101A9000707100F05DFEB060022005EB0711A870C8
:101AA000384681F82E40214600F0BAFB002001B0F4
:101AB000F0BD00BF042001B0F0BD000040F2C8013D
:101AC000C2F2000191F8300091F84010002818BFD0
:101AD0000120002918BF02307047000040F2C80002
:101AE000C2F20000C078704740F2C800C2F20000A5
:101AF00080787047C11E11F1020F3CBF0020704773
:101B000040F2C801C2F2000101EB001090F82C0075
:101B10007047000040F2C800C2F2000000210171CD
:101B200001638186C0E90E110164A0F84410C0E988
:101B300012114FF48031016000F0EABBB0B540F201
:101B4000C804C2F20004A078032825D140F6004062
:101B5000C4F201004FF4007100F0EEFD00284FF0D8
:101B6000000008BFB0BD01212071A063E0872063A1
:101B7000A08601206180002500F098FB0220A5646A
:101B8000A4F84E502564A4F8445000F08FFB00F0F8
:101B9000BFFB0120B0BD00BF207901281CBF002081
:101BA000B0BD00F003F80220B0BD0000B0B540F2B7
:101BB000C804C2F20004A07803281DD020790128AF
:101BC00004BF0020207194F83000B8B194F84000B0
:101BD00060B3A078032808BFB0BD207910B1012000
:101BE00009E000BF94F8300094F8401008434FF02B
:101BF000020008BF0120A070B0BD00BF0025012079
:101C0000A563E5872563A58600F050FB042084F8D2
:101C100030000120A587A563C4F8315084F8355001
:101C200000F044FB94F840000028D2D100250220A7
:101C3000A564A4F84E502564A4F8445000F036FB87
:101C4000042084F840000220A4F84C50A564C4F895
:101C5000415084F8455000F029FBBAE780B500F008
:101C600057FB40F2C800C2F200008178032908BF88
:101C700080BD002181638164016381860164A0F8D5
:101C8000441001210171817080BD000040F2C80143
:101C9000C2F200010A784B789A4204BF00207047D4
:101CA00048B102EB420301EB030C9CF80730837050
:101CB000BCF805300380501C00F0070008700120BC
:101CC000704700002DE9F04F81B040F2C806C2F223
:101CD0000006B078032801D0307928B101B0BDE802
:101CE000F04F00F015BB00BF4FF0000B4FF00109A3
:101CF00014E000BF5FFA89F000F0D8FA002088F8FD
:101D0000310088F8320004208AF800000BF1100B33
:101D1000BBF1200F09F1010900F0008206EB0B086E
:101D2000C2461AF8300F01380528EFD8DFE800F076
:101D300004723858168600BF5FFA89F4022C00F04E
:101D40008D80012C40F09F8100F002FB002800F004
:101D500055810320002101225EE100BF98F8325036
:101D6000002D00F07580681F5FFA89F410F1020FF2
:101D70004FF00001204638BF012188F83E1000F0E6
:101D80004FFA681E0328C1D8DFE810F00400DC0019
:101D9000D400D80000F0DCFA002840F0D880B5E785
:101DA00098F83370002F3FD0781F5FFA89F410F154
:101DB000020F4FF0000120464FF0000538BF01210F
:101DC00088F83E1000F02CFA781E032800F2CF802D
:101DD000DFE800F002CAC2C600F0BAFAC6E000BFEF
:101DE000ABF11000B0FA80F040094400BBF1000FE5
:101DF0004FEA800508BF012408BF0325002C18BF47
:101E0000002D11D0BBF1000F32D000F0ADFA002848
:101E100033D148E198F83240042C3FF677AFDFE841
:101E200004F0035145493B000020C8F83800A8F8E9
:101E30003E00CAF80000AAF804000CE098F832004E
:101E400004283FF657AFDFE800F0036B39672B003B
:101E500004208AF800005FFA89F015E100F084FAA6
:101E6000002800F0D380042000210222D4E000BF2B
:101E700000F06EFA002800F01681681E2F46DFE899
:101E800010F005000F0107010B0100BF00F060FA20
:101E9000002840F008812CE100F07EFAB8B935E75F
:101EA00000F07AFA002840D124E700BF00F05CFA85
:101EB00068B92BE700F064FA48B927E700F054FA54
:101EC00098BB17E700F044FA00283FF41FAF5FFA11
:101ED00089F000F0EBF97178012088F83C00327845
:101EE000481C00F00700904288F83D4002BF8A1C61
:101EF00002F00702327001EB4101314402224A71C3
:101F0000002281F80690CA7170708AF8002088F863
:101F1000312088F83220F9E600F032FA28B9E9E6F3
:101F200000F016FA00283FF4E5AE5FFA89F000F001
:101F30004DF9EBE600F024FA48B9E7E600F02CFA98
:101F400028B9E3E600F010FA00283FF4DFAE20469F
:101F500000F03CF90620D7E600F012FA06E000BFD8
:101F600000F01AFA02E000BF00F0FEF9054600F0AA
:101F7000EFFB98F835108D421CBF88F83550C8F833
:101F8000380098F8341069B3002D7FF4BFAED8F84C
:101F90003810401A1428FFF4B9AE204600F086F934
:101FA00071783278481C00F0070090424FF0000230
:101FB000A8F83C2002BF8A1C02F00702327098F891
:101FC0003F2001EB410131440323707000204B712D
:101FD00081F80690CA71C8F83800CAF80000AAF85B
:101FE000040093E6002D3FF491AED8F83810401A63
:101FF000052824BF012088F8340087E600F0C0F9E6
:10200000002840D001210322012005E000F0C4F99E
:10201000C8B3022001210422871E00F0050327F027
:102020000207B7FA87F7012B4FEA571718BF7B0053
:1020300099451FD1737888F8312037785A1C02F0FF
:102040000702BA4288F8320002BF981C00F007006D
:10205000307003EB4300304401234371002380F8C8
:102060000690C3712046727088F83E1000F0D8F8D0
:10207000022049E60020C8F83800A8F83E00CAF857
:102080000000AAF80400204600F010F93EE600BF68
:1020900000F076F938B92CE000F07EF918B928E0A4
:1020A00000F062F928B3681E2746DFE800F0030F4E
:1020B000070B00BF00F04CF968B9CCE600F060F9FE
:1020C00048B9C8E600F068F928B9C4E600F04CF950
:1020D00000283FF4C0AEBBF1000F05D000F044F97A
:1020E00000287FF4B8AE04E000F032F900287FF455
:1020F000B2AEAF424FF000015FFA89F018BF2C4634
:1021000088F8314088F83270032F38BF012188F8F1
:102110003E1000F085F80520F6E500BFB0780328F2
:102120000ED0307910B1012009E000BF96F83000E0
:1021300096F8401008434FF0020008BF0120B0702D
:1021400001B0BDE8F08F000040F2C801C2F200010A
:102150000322C87000208A708863886408638886B8
:102160000864A1F8440000F0D3B80000B0B540F214
:10217000C804C2F20004A07803281CBF0020B0BD30
:1021800040F60040C4F201004FF4007100F0D4FAB0
:1021900000284FF0000008BFB0BD01212071A063EE
:1021A000E0872063A08601206180002500F07EF892
:1021B0000220A564A4F84E502564A4F8445000F011
:1021C00075F800F0A5F80120B0BD000010B5022898
:1021D00014D0012818BF10BD40F60004C4F2010459
:1021E00020464FF40061012200F0ACFA20464FF483
:1021F00080510122BDE8104000F0A4BA40F600046E
:10220000C4F2010420464FF40041012200F09AFA82
:1022100004F5806008210122BDE8104000F092BA68
:1022200010B5022816D0012818BF10BD40F60004D2
:10223000C4F20104002920464FF400611ED00022A0
:1022400000F080FA20464FF480510122BDE8104092
:1022500000F078BA40F60004C4F2010400292046D8
:102260004FF4004116D0012200F06CFA04F58060B2
:1022700008210022BDE8104000F064BA012200F0FD
:1022800061FA20464FF480510022BDE8104000F072
:1022900059BA00BF002200F055FA04F58060082109
:1022A0000122BDE8104000F04DBA000010B540F624
:1022B00000040228C4F201041CD001280ED12046DB
:1022C0004FF40061002200F03DFA20464FF48051A7
:1022D0000022BDE8104000F035BA00BF20464FF4A0
:1022E0000061002200F02EFA20464FF480510022B7
:1022F00000F028FA20464FF40041002200F022FAB4
:1023000004F5806008210022BDE8104000F01ABAF0
:1023100010B540F60004C4F2010420464FF40061F9
:10232000002200F00FFA20464FF48051002200F006
:1023300009FA20464FF40041002200F003FA04F5A8
:10234000806008210022BDE8104000F0FBB90000C9
:1023500080B540F60000C4F20100012100F0ECF964
:10236000B0FA80F0400980BD80B540F60000C4F2AC
:102370000100022100F0E0F9B0FA80F0400980BDD0
:1023800080B540F60000C4F20100042100F0D4F949
:10239000B0FA80F0400980BD80B540F60000C4F27C
:1023A0000100082100F0C8F9B0FA80F0400980BDB2
:1023B00080B540F60000C4F20100102100F0BCF925
:1023C000B0FA80F0400980BD80B540F60000C4F24C
:1023D0000100202100F0B0F9B0FA80F0400980BD82
:1023E000FEE7000070470000102000F091B80000E8
:1023F00080B5202000F08CF84FF4807000F088F851
:102400004FF40070BDE8804000F082B8014690F8BB
:102410002100022816D10868D1E90FC3026822F012
:102420000E020260026822F001020260012000FA3E
:1024300003F2CCF8042081F821000020002281F86A
:1024400020207047042088630120002281F820208A
:102450007047000090F82110022923D1026840F251
:10246000040C1168C4F2020C21F00E011160136813
:102470002F21C4F202018A4223F00103136015DD0B
:102480003023C4F202039A421CD04423C4F2020354
:102490009A421BD05823C4F202039A421CD14FF433
:1024A000803321E004218163012070470823C4F2B6
:1024B00002039A420ED01C23C4F202039A420BD1AB
:1024C000102311E04FF480730EE000BF4FF48053EF
:1024D0000AE000BF012307E00CF168014FF08073B0
:1024E0008A4208BF4FF480130121CCF8003080F8F5
:1024F0002110416B0022002980F8202004BF002019
:10250000704780B58847002080BD000070470000FC
:1025100040F21441C4F201010A68024214BF08608B
:102520007047FFF7F3BF00002DE9F04F82B00E684F
:10253000002E00F0FD8041F20042C4F201020423AB
:1025400040F2004E904208BF03234FF6FF7CC4F2D6
:10255000010E009300240123C1F2100C4FF0000A79
:102560004FF000094BE000BF41F20002C4F201024B
:10257000009F904208BF022704F00C030F229A40EC
:102580002BEA020207FA03F34FEA9A051A4346F8C8
:1025900025204E6840F20C45F202DEF8082054BFB8
:1025A00022EA080242EA0802C4F20105CEF8082035
:1025B0002A68B30254BF22EA080242EA08022A60EB
:1025C000B303DEF8042054BF22EA080242EA0802FC
:1025D000F303CEF80420DEF800204FF0010354BFCF
:1025E00022EA080242EA0802CEF800200E680AF148
:1025F000010A36FA0AF204F1040400F0998003FAA1
:102600000AFB16EA0B08F1D04E68664512DC122E62
:1026100056D8DFE806F0350B4D49555555555555FB
:102620005555555555555545510000BFD1F80C909D
:1026300046E000BF4FF6FF72C1F2210296420FDC66
:102640000022C1F2110296421AD00022C1F21202F7
:10265000964215D00022C1F22102964210D02FE0FE
:102660000022C1F2220296420AD00022C1F23102B7
:10267000964205D00022C1F23202964220D100BF1C
:102680008A684AB1012A14BFC0F814B0C0F810B06B
:102690004FF0080914E000BF4FF0040910E000BF3C
:1026A000CA6802F104090BE04FF0000908E000BF1E
:1026B000CA6802F1080903E0CA6802F10C0900BF08
:1026C00002462646B8F5807F24BF0432203E1768B4
:1026D0000F25B54027EA050509FA06F635431560CA
:1026E000CA79D2067FF582AF41F21803C4F2020321
:1026F0001A68AEF57E7642F001021A601A6802F09E
:1027000001020192019A2AF0030256F802B040F643
:102710000002C4F20102904208D040F60042C4F226
:10272000010290427FF420AF012725E7002723E72D
:1027300002B0BDE8F08F00008068084018BF01209B
:1027400070470000002A08BF0904016170470000BB
:1027500040F2C810C2F200000068704740F200006A
:1027600040F2C811C2F20000C2F2000100780A680B
:10277000104408607047000080B542F20000C4F2C7
:102780000200016841F010010160032000F06CF8C4
:102790000F2000F005F800F027F8002080BD0000B1
:1027A00070B540F20006C2F2000640F2080132782D
:1027B000C2F200014FF47A730968B3FBF2F20446E7
:1027C000B1FBF2F1084600F065FB0F2C4FF001055C
:1027D00008D838B94FF0FF3021460022002500F01C
:1027E00017F87460284670BD70470000002848BF85
:1027F000704700F01F01012202FA01F11C2202EAD7
:10280000D0004EF20012CEF200028150704700005C
:1028100010B54EF60C5CCEF2000CDCF80030C3F3C1
:10282000022E8EF00704042C28BF0424BEF10303FB
:102830004FF0FF3E0EFA04F438BF0023A143994045
:102840000EFA03F39A43114300F00F0200F16043C4
:102850000901043A03F564436244002848BF02F1C9
:102860000C03197010BD00004EF60C51CEF20001A1
:102870000A684FF6FF031A4060F30A2242F08060B4
:1028800040F0FD7008607047002804BF01207047C9
:102890002DE9F04381B042F20008C4F20208044678
:1028A000D8F800000D4600F0070088420CD2D8F896
:1028B000000020F007002843C8F80000D8F8000006
:1028C00000F00700A8426CD1206841F2040981079A
:1028D000C4F2020917D5410705D5D9F8001041F413
:1028E000E061C9F80010010705D5D9F8001041F4DE
:1028F0006051C9F80010D9F80010A26821F0F00169
:102900001143C9F80010C00742D1D8F8000000F008
:102910000700A8420CD9D8F8000020F0070028438F
:10292000C8F80000D8F8000000F00700A84238D12D
:102930002068410707D5D9F80010E26821F4E0616A
:102940001143C9F80010000708D5D9F80000216923
:1029500020F4605040EAC100C9F80000D9F8002016
:1029600002F00C00082841F20020C0F27A004DD19C
:1029700045F21603C2F38341C0F60003595CD2034B
:1029800038D440F60010C0F23D0048433EE000BF9E
:10299000606859F8041C022808D0012826D1890350
:1029A00006D4012001B0BDE8F08300BF8901F8D54D
:1029B000D9F8001021F003010843C9F80000FFF71F
:1029C000C7FE064641F28837D9F80000616800F07A
:1029D0000C00B0EB810F98D0FFF7BAFE801BB84215
:1029E000F2D9032001B0BDE8F08300BF8907D8D534
:1029F000DEE700BFD9F8002045F21403C2F34042DD
:102A0000C0F600039A5C4843B0FBF2F0D9F800101E
:102A100044F6FC72C1F30311C0F60002515C40F2AF
:102A2000080220FA01F140F20400C2F2000000683E
:102A3000C2F200021160FFF7B3FE002001B0BDE852
:102A4000F083000040F2080041F20401C2F20000ED
:102A5000C4F202010068096845F20C02C1F30221C8
:102A6000C0F60002515CC8407047000040F2080008
:102A700041F20401C2F20000C4F2020100680968D8
:102A800045F20C02C1F3C221C0F60002515CC840FD
:102A900070470000002804BF012070472DE9F04175
:102AA00082B00446007841F20006C007C4F2020674
:102AB0000CD0706800F00C00042840F08180306871
:102AC000800303D56068002800F0468120788007E5
:102AD0001BD5706810F00C0F09D0706800F00C0066
:102AE000082840F087807068C00300F18380306858
:102AF000800703D52069012840F02E813068616984
:102B000020F0F80040EAC10030602078000713D4BC
:102B1000207840072CD4E569002D00F018817068FA
:102B200000F00C00082840F0A780012D40F004813F
:102B3000012002B0BDE8F081A069002800F0848087
:102B40000020C4F242200121C0F88014FFF700FEEB
:102B5000054600BF706A800700F1B280FFF7F8FDFC
:102B6000401B0228F6D9032002B0BDE8F08100BF67
:102B7000F0695FEAC00808D4F06940F08050F06165
:102B8000F06900F080500090009847F20007C4F20E
:102B900000073868C00549D4386840F48070386050
:102BA000FFF7D6FD054600BF3868C0053ED4FFF7E5
:102BB000CFFD401B6428F7D9032002B0BDE8F081A7
:102BC000706800F00C00082803D17068C0033FF55E
:102BD00076AF61683068002900F00C81B1F5A02F54
:102BE00000F00081B1F5803F40F01A8140F4803060
:102BF0001CE100BF2069002840F20000C4F242201E
:102C000000F0888001210160FFF7A2FD054600BFAA
:102C1000306880073FF572AFFFF79AFD401B02282E
:102C2000F6D9032002B0BDE8F08100BFE168306A48
:102C3000002900F09D80052900F09280012940F0D4
:102C4000AF8040F00100B1E00020C4F2422000213A
:102C5000C0F88014FFF77CFD054600BF706A80074E
:102C60007FF556AFFFF774FD401B0228F6D903200D
:102C700002B0BDE8F08100BF0027C4F24227002067
:102C80003866FFF765FD022D05460DD130688001DD
:102C900040F1DE80FFF75CFD401B02284FF003008F
:102CA000F4D902B0BDE8F081306880014FD5FFF75C
:102CB0004FFD401B02284FF00300F5D9F1E700BF9C
:102CC00040F20800C2F20000006844F6D351C1F29D
:102CD0006201A0FB0101480A019000BF00BF0198FA
:102CE000411E002801913FF413AF00BF0198411E1F
:102CF000002801913FF40CAF00BF0198411E00284D
:102D000001913FF405AF00BF0198411E00280191D9
:102D1000E4D1FDE600210160FFF71AFD054600BF82
:102D2000306880077FF5F1AEFFF712FD401B0228E7
:102D30004FF00300F4D9B4E77068216A00F48032E0
:102D40008A4209D1616A00F47010884204D10020DF
:102D500002B0BDE8F08100BF012002B0BDE8F08103
:102D600040F004003062306A40F001001EE000BF15
:102D700020F001003062306A20F004003062FFF77A
:102D8000E7FC054641F28837306A800720D5FFF717
:102D9000DFFC401BB8424FF00300F5D981E700BFCC
:102DA00020F001003062306A20F004003062FFF74A
:102DB000CFFC054641F28837306A800708D4FFF718
:102DC000C7FC401BB842F7D9032002B0BDE8F08130
:102DD000B8F1000F3FF59FAEF06920F08050F06130
:102DE00099E600BF40F480203060306840F48030C5
:102DF0001CE000BF20F480303060306820F4802078
:102E00003060FFF7A5FC0546306880037FF55EAEB5
:102E1000FFF79EFC401B64284FF00300F4D940E705
:102E200020F480303060306820F480203060FFF77C
:102E30008FFC0546306880033FF548AEFFF788FCFD
:102E4000401B6428F6D9032002B0BDE8F08100BF22
:102E5000206AB0F5803F05D17168A26821F4003185
:102E6000114371607168626A21F47411114308435F
:102E7000706001203866FFF76BFC04463068800103
:102E80003FF565AFFFF764FC001B02284FF003001D
:102E9000F4D906E7411E0020B0EB116F1CBF0120E2
:102EA00070474EF21002CEF2000251604EF62351EE
:102EB000CEF20001F0230B70072190601160704783
:102EC0007047000000F0A4BCB0B582B001680A6889
:102ED000CC684B6902F02F05202D04F0200505D1A8
:102EE00025B102B0BDE8B04001F0B6B85FEA027C9F
:102EF0001EBF03F0010E04F4907313EB0E0341D1D7
:102F0000036BD50618D5012B16D114F0100313D07E
:102F1000002201920A6801924A680192019A496965
:102F200049064BD4818DC28DC38D002B18BF9142B1
:102F300040F0F48102B0B0BD13062DD514F080032B
:102F40002AD090F84120212AF4D18268B2F5805F1E
:102F500003D10269002A00F06782026A531C0362EF
:102F600012784A60C28C013A1304C284E2D1C86864
:102F700020F08000C860C86840F04000C86002B01F
:102F8000B0BD00BFD30718BF14F4807340F0D080E9
:102F9000530700F1D380D8E05206CBD514F040029D
:102FA000C8D0CA6822F04002CA60202180F84110CF
:102FB00002B0BDE8B04000F0E7BB00BFC16B0A68DB
:102FC000526893B2002BB5D0858DAB42B2D2C28588
:102FD0008969202900F0A180016851E8031F026877
:102FE00021F4807142E80313DBB1016851E8031F4B
:102FF000026821F4807142E8031393B1016851E83B
:10300000031F026821F4807142E803134BB1016889
:1030100051E8031F026821F4807142E80313002B7A
:10302000DAD1016851E8051F026821F0010142E888
:103030000513C3B3016851E8051F026821F00101BF
:1030400042E805137BB3016851E8051F026821F0CF
:10305000010142E8051333B3016851E8051F026816
:1030600021F0010142E80513002BDAD11BE000BF7B
:10307000016851E8051F026821F0400142E805138C
:10308000DBB1016851E8051F026821F0400142E808
:10309000051393B1016851E8051F026821F0400152
:1030A00042E805134BB1016851E8051F026821F0A1
:1030B000400142E80513002BDAD1202180F84210AC
:1030C00000210163016851E8031F026821F010012B
:1030D00042E80313DBB1016851E8031F026821F0E5
:1030E000100142E8031393B1016851E8031F02681D
:1030F00021F0100142E803134BB1016851E8031FAE
:10310000026821F0100142E80313002BDAD1C16BF1
:1031100004460846FFF77AF9204602214163818D73
:10312000C28D891A89B202B0BDE8B040FFF7C8BEAF
:10313000436C43F001034364530706D5BEF1000F0F
:1031400003D0436C43F002034364930706D5BEF1FA
:10315000000F03D0436C43F004034364BCF1000F41
:1031600006D55EEA050303D0436C43F008034364CD
:10317000436C002B3FF4DEAE920605D525B1044624
:1031800000F06AFF216820464969426C01F0400165
:1031900002F00802891800F0B98000BF016851E808
:1031A000031F026821F4907142E80313BBB3016866
:1031B00051E8031F026821F4907142E8031373B3CE
:1031C000016851E8031F026821F4907142E803137B
:1031D0002BB3016851E8031F026821F4907142E8A3
:1031E0000313002BDAD11AE0016851E8051F0268C9
:1031F00021F0010142E80513DBB1016851E8051F28
:10320000026821F0010142E8051393B1016851E819
:10321000051F026821F0010142E805134BB1016866
:1032200051E8051F026821F0010142E80513002B57
:10323000DAD1016B012924D1016851E8031F02682A
:1032400021F0100142E80313DBB1016851E8031FCC
:10325000026821F0100142E8031393B1016851E8BC
:10326000031F026821F0100142E803134BB101680B
:1032700051E8031F026821F0100142E80313002BFC
:10328000DAD1202180F842100021016301684969E8
:10329000490640F1C380016851E8051F026821F02A
:1032A000400142E80513DBB1016851E8051F0268DF
:1032B00021F0400142E8051393B1016851E8051F70
:1032C000026821F0400142E805134BB1016851E862
:1032D000051F026821F0400142E80513002BDAD1F6
:1032E000C16B002900F09A8043F60502C0F6000287
:1032F000044608464A63FFF7ADF800283FF41AAECB
:10330000E06B416B02B0BDE8B04008470446FFF7F0
:10331000D9FD0020606402B0B0BD00BF891A00BFB3
:10332000026852E8032F036822F4907243E80325F1
:10333000BDB3026852E8032F036822F4907243E899
:10334000032575B3026852E8032F036822F49072D4
:1033500043E803252DB3026852E8032F036822F4E3
:10336000907243E80325002DDAD11AE0026852E892
:10337000052F036822F0010243E80525DDB102684C
:1033800052E8052F036822F0010243E8052595B1B4
:10339000026852E8052F036822F0010243E8052580
:1033A0004DB1026852E8052F036822F0010243E89C
:1033B0000525002DDAD1202280F842200022026368
:1033C000026852E8032F036822F0100243E8032545
:1033D000DDB1026852E8032F036822F0100243E8CF
:1033E000032595B1026852E8032F036822F010020A
:1033F00043E803254DB1026852E8032F036822F029
:10340000100243E80325002DDAD1022289B242637B
:1034100002B0BDE8B040FFF753BD00BF02B0BDE849
:10342000B040FFF74FBD00BF026A32F8023B6FF3B6
:103430005F234B60026295E5002804BF01207047BE
:1034400010B5044690F8410028B9002084F84000E7
:10345000204600F063F8242084F841002068D4E975
:103460000212C36823F40053C360036923F440537A
:103470001A430261D4E904231143C268194341F29B
:103480000C639A431143C1604169A26921F4407100
:10349000114343F60002C4F201029042416103D09D
:1034A000FFF7D0FA02E000BFFFF7E0FAD4E900230B
:1034B000192148439900B0FBF1F048F21F5CC5F2B6
:1034C000EB1CA0FB0C314FF69C734909C0F6FF734F
:1034D00001FB0300322303EB0010A0FB0C03F020E0
:1034E00000EA531000EB0110C3F34311084490604D
:1034F0001069202120F490401061506920F02A00CA
:103500005061D06840F40050D0600020606484F8BE
:10351000411084F84210606310BD000070B586B0A1
:1035200040F60004C4F20104006804F5405100268E
:1035300088420596CDE90366029601D006B070BDBB
:1035400041F21800C4F20200016802AD41F480416A
:103550000160016801F4804101910199016841F025
:10356000040101600068294600F004000190019800
:103570004FF4007002900220039003200590204633
:10358000FEF7D2FF4FF48060CDE9020620462946BF
:103590000496FEF7C9FF06B070BD000090F84230F7
:1035A000202B07D100294FF0010318BF002A05D1B5
:1035B0001846704702231846704700BF0023036374
:1035C000816222218285C285436480F842100169AC
:1035D000006819B1C16841F48071C160416941F06E
:1035E00001014161C16841F02001C1601846704786
:1035F00000F00ABD2DE9F04381B0044690F8410087
:10360000202809D100294FF0010018BF002A07D156
:1036100001B0BDE8F08300BF022001B0BDE8F08337
:103620000020606421201D460E4684F841001746A4
:10363000FFF78EF8A784E784A1688146B1F5805F23
:1036400002D1206900285DD037460020E28C216835
:10365000002A5DD06A1C24D0002D4AD0804600BFCD
:103660000868000608D4FFF773F8A0EB0900A84229
:103670007AD82168C868F3E717B117F8010B04E09E
:1036800038F8020B00276FF35F204860E08C0138A8
:10369000E084E08C0028E3D13AE000BF0A6812061B
:1036A00009D40A68120606D40A6812065CBF0A68C2
:1036B0005FEA0262F2D51FB117F8012B05E000BFE7
:1036C00030F8022B00276FF35F224A60E28C013A48
:1036D000E284E28C002AE4D11AE000BF30F8022B29
:1036E00000276FF35F224A60E28C013AE284E28CA9
:1036F00072B10A68120635D5002FEFD017F8012BEA
:10370000F1E700BF00273046E28C2168002AA1D1F2
:10371000086840061ED42DB3681C14D10868400602
:103720002AD40868400627D40868400624D40868CC
:1037300040064FF00000F1D50DE000BF2068C168E1
:103740000068400618D4FFF703F8A0EB0900A84270
:10375000F4D909E00020202184F8411001B0BDE82F
:10376000F08300BFFEF7F4FF0320202184F841100E
:1037700001B0BDE8F08300BF0020202184F8411093
:1037800001B0BDE8F083000070470000FEE70000D4
:1037900010B5044601704170FEF7DAFF606000204A
:1037A000207210BD4078401AB0FA80F0400970478E
:1037B000B0B504460078154600228842227203D034
:1037C0002170FEF7C5FF6060FEF7C2FF6168401A16
:1037D000322838BFB0BD20786178814204D0A84239
:1037E000607004BF01202072B0BD0000FEE7000041
:1037F000FEE700007047000070470000FEF7AEBF14
:1038000070470000406A0021C185C184FFF75ABBA0
:1038100040F21811C2F200014A68002A08BF70473E
:1038200000681168884201D0704700BF40F218114B
:10383000C2F2000110460122FFF7B0BE80B540F28F
:103840001811C2F2000148600020488001F1080010
:103850006021FCF7BBFE80BDF0B58DB040F21817BB
:103860000D28C2F2000701D00A2879D179880029F1
:1038700000F099833A4612F8080F002300285354A9
:1038800000F06181242877D1384610F8093F0025DF
:10389000002B019000F0B88007F10A00012601AA70
:1038A0002C2B02BF00F8015C42F82600013610F80C
:1038B000013B0BB10C2EF3DB012EC0F26E8301989D
:1038C0000578002D00F0DE80A5F16102D4B2294612
:1038D000A5F120031A2C38BF1946C9B2482940F077
:1038E00083814478002C00F0D580A4F16101C9B235
:1038F0001A2938BF203CE1B2452940F0758184780F
:10390000002C00F0CB80A4F16101C9B21A2938BFA4
:10391000203CE1B24C2940F06781C478002C00F0D3
:10392000C380A4F16101C9B21A2938BF203CE1B2B9
:103930004C2940F059810479002C00F02381A4F136
:103940006101C9B21A2938BF203CE1B24F2940F0C9
:103950004B814179002940F04781052313E100BFE5
:1039600079885E2900F219834A1C07F1080358542C
:1039700098187A8015E300BFA0F16101C9B21A2935
:1039800038BF2038C0B2522842D0532840F00583B7
:10399000787A00287AD0A0F16101C9B21A2938BF1B
:1039A0002038C0B2542840F0F882B87A002800F0DD
:1039B0009F80A0F16101CAB20346A0F120011A2A3A
:1039C00038BF0B46DBB2412B40F07880FB7A002BEE
:1039D00066D0A3F16106F6B21A2E38BF203BDBB2E7
:1039E000522B6BD13B7B002B60D0A3F16106F6B26A
:1039F0001A2E38BF203BDBB2542B5FD17B7B002BD0
:103A00005CD1052353E000BF012201260023BBE067
:103A1000787A00283CD0A0F16101C9B21A2938BFD8
:103A20002038C0B2452840F0B882B87AA0B3A0F1DF
:103A30006101C9B21A2938BF2038C0B2532840F0FA
:103A4000AC82F87A70B3A0F16101C9B21A2938BF0B
:103A50002038C0B2452840F0A082387B002800F012
:103A60007180A0F16101C9B21A2938BF2038C0B2F3
:103A7000542840F09282787B002840F08E82052006
:103A800061E000BF0025012200237DE0012030E03D
:103A9000012058E0012376E0022054E0022372E086
:103AA000032304E003204EE003236CE0042345F2EB
:103AB000EC06C0F60006F35C63B3C8B11A2A38BF3F
:103AC0000846C0B24F2840F06882F87A00B3A0F1EF
:103AD0006101C9B21A2938BF2038C0B2502840F05D
:103AE0005C82387B002840F05882042001E000BF4F
:103AF000022045F2D701C0F60001085C002840F022
:103B00004C82FEF7ABF80FF2F84000F0C1FD44E242
:103B10000320EEE70120FDF7DBFE052800F2F0812F
:103B200045F2F203C0F60003DFE810F03702EE01C1
:103B30000600DE01D801E40145F2D603C0F6000319
:103B4000E2E100BF04200FF2A441085C002840F02D
:103B50002482FEF70BFB38B145F23700C0F60000B7
:103B600000F096FD19E200BF45F26D0045F2D0016C
:103B7000C0F60000C0F600010FF2784200F088FDA8
:103B80000BE200BF042300220FF22041C95CF9B10F
:103B900032B30020012E00F000820FF22841085CB1
:103BA000002840F0FA81029C45F2D601C0F60001DF
:103BB000204600F041FD002800F0C0800E20FEF7F6
:103BC000C3FA45F22600C0F6000000F061FDE4E112
:103BD00045F24E00C0F6000000F05AFDDDE100BFE6
:103BE000A5F16102A5F12003D1B21A2928BF2B4605
:103BF000D9B2422956D0432932D0502940F0CD8144
:103C00004178002900F0BC80A1F16102D2B21A2AE9
:103C100038BF2039C9B2492940F0BF8181780029D5
:103C200000F0DC80A1F16102D2B21A2A38BF20393B
:103C3000C9B24E2940F0B181C178002900F00E814F
:103C4000A1F16102D2B21A2A38BF2039C9B247297C
:103C500040F0A3810079002840F09F810420FEE01D
:103C60004178002900F08880A1F16102D2B21A2ABD
:103C700038BF2039C9B24D2940F08F8181780029A1
:103C800000F0A880A1F16102D2B21A2A38BF20390F
:103C9000C9B2442940F08181C078002840F07D817C
:103CA000032077E74178002968D0A1F16102D2B200
:103CB0001A2A38BF2039C9B2552940F06E8181785F
:103CC000002900F08980A1F16102D2B21A2A38BF1E
:103CD0002039C9B25A2940F06081C178002900F02A
:103CE000BB80A1F16102D2B21A2A38BF2039C9B211
:103CF0005A2940F052810179002900F0ED80A1F1AC
:103D00006102D2B21A2A38BF2039C9B2452940F01F
:103D100044814179002900F01B81A1F16102D2B2F6
:103D20001A2A38BF2039C9B2522940F03681807929
:103D3000002840F0328106200BE100BF45F2D0019F
:103D4000C0F60001204600F077FCD8B1FDF7CCFEAC
:103D500003287FF401AFFEF709FA00287FF4FCAED8
:103D600045F26D0045F2D001C0F60000C0F600013A
:103D700095A200F08DFC10E101200BE70120E8E0A6
:103D800001206CE045F2EC01C0F60001204600F095
:103D900053FC032E24D318B3039800210A22FCF706
:103DA000BDFBC4B22046FDF793FD052800F28880D4
:103DB00045F2F202C0F60002DFE810F0EF008600E4
:103DC0000600760070007C0045F2D602C0F60002C4
:103DD0007AE000BF0220DDE60220BAE002203EE0E9
:103DE00045F2D701C0F60001204600F025FC042E64
:103DF00028D338B3039800210A220025FCF78EFB54
:103E0000044604980DF103018DF8035000F078FB8F
:103E10009DF80310002937D00146E0B2FDF792FD6E
:103E2000052800F28F8045F2F202C0F60002DFE8BA
:103E300000F0B42C037D778345F2D602C0F6000271
:103E400023E000BF45F26D00C0F6000061A22146EC
:103E500000F01EFCA1E000BF03207AE00320012E49
:103E600000F09B8055A1085C002840F096800298E5
:103E700000210A22FCF752FB014645F29400C0F6ED
:103E8000000000F005FC88E055A245F2D700E1B241
:103E9000C0F6000000F0B0F97FE000BF45F2C702B5
:103EA000C0F6000210E000BF45F2A002C0F600021A
:103EB0000AE000BF45F2BA02C0F6000204E000BF0B
:103EC00045F2C402C0F6000245F2EC00C0F6000064
:103ED000214600F091F960E004203AE045F2C70382
:103EE000C0F6000310E000BF45F2A003C0F60003D7
:103EF0000AE000BF45F2BA03C0F6000304E000BFC9
:103F000045F2C403C0F6000345F27F0045F2EC0120
:103F1000C0F60000C0F60001012200F0B9FB3CE051
:103F200045F2C702C0F60002AFE700BF45F2A002AB
:103F3000C0F60002A9E700BF45F2BA02C0F60002CF
:103F4000A3E700BF45F2C402C0F600029DE700BF30
:103F50000520032E21D317A1085CF0B90398002196
:103F60000A22FCF7DBFAC0B20138012815D8029CFE
:103F700045F2EC01C0F60001204600F05DFB08B1FF
:103F80001E2008E045F2D701C0F60001204600F0EF
:103F900053FB10B10E20FDF753FC0020788007F191
:103FA0000800002101700DB0F0BD00BF48454C4C29
:103FB0004F00000042555A5A4552000050494E47A2
:103FC00000000000434D4400454D45525F414354BD
:103FD000495645004241445F464F524D415400000E
:103FE0004241445F53494445000000005245534557
:103FF000540000004E4F545F4553544F5000000092
:1040000053746F700D0A000010B540F21814C2F21C
:1040100000046168002908BF10BD00680968884273
:1040200000D010BD2078FFF717FC60682146012200
:10403000BDE81040FFF7B2BA40F21810C2F200001B
:104040004068002808BF704740F21811C2F2000112
:104050000122FFF7A3BA000081B090F84210222994
:1040600021D183680246B3F5805F09D152F8281F39
:1040700052F8183C002B63D003685B680AE000BF6D
:1040800052F8281F13B90369002BF5D003685B6849
:1040900003F07F030B70116801311160C18D01398C
:1040A0000A04C18502D001B0704700BF0168CA6828
:1040B00022F02002CA60CA6822F48072CA604A698B
:1040C00022F001024A61202180F842100021416360
:1040D000026B012A3CD10163016851E8031F0268A9
:1040E00021F0100142E80313DBB1016851E8031F1E
:1040F000026821F0100142E8031393B1016851E80E
:10410000031F026821F0100142E803134BB101685C
:1041100051E8031F026821F0100142E80313002B4D
:10412000DAD101680A68D20606D5002200920A6830
:104130000092496800910099818D01B0FEF7C0BEE0
:10414000026852686FF35F2221F8022B8162A5E7B3
:1041500001B0FFF74DBA000045F23700C0F600008D
:1041600000F096BA014601A000F092BA2441434BF8
:104170002C434D442C53544152542C25750D0A00A8
:10418000014601A000F084BA2441434B2C434D4426
:104190002C53544F502C25750D0A0000034645F250
:1041A000DC0045F2E102C0F60000C0F60002002982
:1041B00008BF024601A0194600F06ABA2441434BE9
:1041C0002C434D442C53544F502C25752C25730DE6
:1041D0000A000000014601A000F05ABA24455645E5
:1041E0004E542C42554D5045522C25752C54524955
:1041F000474745520D0A000013460A46002901466A
:1042000006D045F27F00C0F6000000F041BA00BFC2
:1042100045F26D00C0F600001A4600F039BA000001
:1042200001A000F035BA00BF2453544F500D0A00CE
:104230002DE9F04F8DB083460120CDE90831FDF71F
:1042400059FC07900220FDF755FC8246FEF780F8E6
:104250000546FEF789F80746FEF792F80646FEF790
:104260009BF88046FEF7A4F88146FEF7ADF8079B61
:1042700004461FA20DF12A000A21CDE900A5CDE9CF
:104280000276CDE904890694FCF728F8089EBBF174
:10429000030F13D196B145F2AD07C0F6000745F202
:1042A000D601099B22A0C0F600010DF12A02CDE93A
:1042B000007600F0EDF90DB0BDE8F08FBBF1030F13
:1042C00004D810A050F82B1004E000BF45F2A8015C
:1042D000C0F6000145F2AD07099BC0F600070DA02E
:1042E0000DF12A02009700F0D3F90DB0BDE8F08F70
:1042F00025752575257525752575257525752575EE
:1043000000000000E7500008A8500008B250000864
:10431000D65000082454454C454D455452592C253F
:10432000732C25732C25752C25730D0A00000000B5
:104330002454454C454D455452592C25732C257316
:104340002C25752C25732C25750D0A0040F2801044
:10435000C2F20000FEF7B8BDFEE7000090B0FEF725
:104360000BFA06AC201D2421FCF730F90220069040
:1043700001200A9010200B90002520460D95FEF795
:1043800089FB38B1EFF3108072B6FDF7C1FF00BFB3
:10439000FEE700BF0F20CDE9010501A80021CDE90E
:1043A00003550595FEF770FA30B1EFF3108072B641
:1043B000FDF7AEFFFEE700BF002741F21800CDE990
:1043C0000877CDE90677C4F2020001684FF00209D0
:1043D00041F004010160016840F6004801F0040169
:1043E000019101990168C4F2010841F008010160DE
:1043F0000168002201F008010191019901684FF262
:10440000080A41F001010160006800F0010001901C
:1044100001980420C4F20100016869F31A61016087
:1044200040464FF20801FEF78DF9A8F58066304648
:104430004FF4184100224FF4184BFEF783F93F2048
:1044400006ADCDE906070124304629460894FEF75B
:104450006BF840462946CDE906A4CDE90879FEF778
:1044600063F830462946CDE906B4CDE90879FEF770
:104470005BF84FF40C70CDE90607404629460894D6
:10448000FEF752F8C020CDE90607404629460894B9
:10449000FEF74AF84FF48070CDE9060740462946FA
:1044A0000894FEF741F840F2801008F53051C2F24E
:1044B00000000C234FF47A3280E88600C0E90377CD
:1044C000C0E90537C761FEF7B7FF38B1EFF31080D9
:1044D00072B6FDF71DFF00BFFEE700BF25200121DA
:1044E0000022FEF795F92520FEF780F940F28010B2
:1044F000C2F20000FDF760F8FDF7B0F8FCE700003D
:10450000B0B50278002A7BD0A2F16103DDB2134678
:10451000A2F1200C1A2D38BF6346DBB24C2B38D1E8
:1045200043781BB3A3F16104E4B21A2C38BF203BDB
:10453000DBB2452B2DD18378E3B1A3F16104E4B262
:104540001A2C38BF203BDBB2462B22D1C378ABB14B
:10455000A3F16104E4B21A2C38BF203BDBB2542B28
:1045600017D10379ABB94FF0040E09E04FF0010EFB
:1045700006E000BF4FF0020E02E000BF4FF0030E56
:1045800045F2DC03C0F6000313F80E30002B49D0CF
:10459000B2B31A2D38BF6246D2B2522A37D142780E
:1045A000002A3DD0A2F16103DBB21A2B38BF203ABA
:1045B000D2B2492A2BD18278C2B3A2F16103DBB215
:1045C0001A2B38BF203AD2B2472A20D1C2787AB308
:1045D000A2F16103DBB21A2B38BF203AD2B2482ACB
:1045E00015D1027932B3A2F16103DBB21A2B38BFC5
:1045F000203AD2B2542A0AD1407940B9052000E0CD
:10460000002045F2E102C0F60002105C20B1002259
:1046100000200A70B0BD00BF012201200A70B0BDA9
:104620000120EEE7002001220A70B0BD0220E8E779
:104630000320E6E70420E4E710B504784FF0000C0F
:10464000ECB14FF0000E00BF11F80C20F2B1A4F154
:104650006103DBB21A2B38BF203CE3B2A2F1610444
:10466000E4B21A2C38BF203AD2B293420ED10EF1E6
:10467000010E1FFA8EFC10F80C40002CE4D111F84A
:104680000C00B0FA80F0400910BD00BF002010BD42
:1046900083B0B0B599B004461DA80EC01DAB01A8EB
:1046A000602122460093FBF7FBFD40F21810C2F296
:1046B000000044684CB101AD2846FBF768FF82B2A8
:1046C000204629463223FEF795FF19B0BDE8B040D9
:1046D00003B070475FEA400C08BF91F0000F4FEA4B
:1046E0008C234FEAC12243EA51514FEA1C5018BFB4
:1046F00000F5F0404FEA300018BF41F000415FEA9A
:104700006C5C00F02980BCF1FF3F08BF40F08040A6
:104710007047130C06BF12044FF0100C4FF0000C42
:10472000130E04BF12020CF1080C130F04BF120188
:104730000CF1040C930F04BF92000CF1020CD30F88
:1047400004BF52000CF1010C11464FF00002A0F121
:104750001F00A0EB0C00704711F0004F08BF70471E
:1047600031F000413FF4D5AF0B0C06BF09044FF008
:10477000100C4FF0000C0B0E04BF09020CF1080CDA
:104780000B0F04BF09010CF1040C8B0F04BF89004F
:104790000CF1020CCB0F04BF49000CF1010CCCF161
:1047A000200322FA03F341EA030102FA0CF2A0EB20
:1047B0000C0000F10100704723F07F4720F07F4C90
:1047C00080EA030000F00040ACEB070303F57C53E4
:1047D00003F1FF032DE9804909B44FEA144324EAA9
:1047E00003484FEA154B25EA0B4E0FF2042606EB61
:1047F00013273E7803FB0667C7F5000707FB06F69D
:104800004FEAD64606F102064FEA543707FB066C1C
:10481000CCF1005C4FEA1C472CEA074C0CFB06F578
:1048200007FB06F404EB15464FEA961649085FEAC3
:10483000320234BF00204FF000404FEAD13706FB70
:1048400007FC4FEA1C4C0CFB0BF7D21B03FB0CF7CD
:1048500061EB07010CFB0EF7B0EB074072EB174260
:104860000CFB08F734BFA2EB0742B2EB074261EB47
:1048700017414FEA0C444FEA910706FB07FC4FEA49
:104880001C4C0CFB0BF7B0EBC74072EB573203FB31
:104890000CF734BFA2EBC742B2EBC74261EB573112
:1048A0000CFB0EF7B0EBC70072EB57720CFB08F76E
:1048B00034BFA2EBC702B2EBC70261EB57714FEAFC
:1048C000816141EA92114FEA826242EA90124FEA14
:1048D000806004EBCC04039F4FEAD13706FB07FC52
:1048E0004FEA1C4C0CFB0BF7D21B03FB0CF761EBE4
:1048F00007010CFB0EF7B0EB074072EB17420CFB05
:1049000008F734BFA2EB0742B2EB074261EB174155
:104910004FEA8C5504EB9C244FEA910706FB07FCF9
:104920004FEA1C4C0CFB0BF7B0EBC74072EB573255
:1049300003FB0CF734BFA2EBC742B2EBC74261EBFB
:1049400057310CFB0EF7B0EBC70072EB57720CFB44
:1049500008F734BFA2EBC702B2EBC70261EB577195
:104960004FEA816141EA92114FEA826242EA901273
:104970004FEA806015EB4C2544F100044FEAD13733
:1049800006FB07FC4FEA1C4C0CFB0BF7D21B03FB8E
:104990000CF761EB07010CFB0EF7B0EB074072EB75
:1049A00017420CFB08F734BFA2EB0742B2EB0742F9
:1049B00061EB17414FEA813141EA92414FEA82327D
:1049C00042EA90424FEA80304FEA0C7615EB1C1514
:1049D00044F1000448EA03434EEA0B484FF0000E4E
:1049E000B2EB080C71EB030724BF624639464EEB6D
:1049F0000E0E4FF0000B0018524149414BEB0B0BD0
:104A0000B2EB080C71EB03077BF1000B24BF62468D
:104A100039464EEB0E0E4FF0000B00185241494143
:104A20004BEB0B0BB2EB080C71EB03077BF1000BAC
:104A300024BF624639464EEB0E0E51EA020718BFFC
:104A400046F0010616EB0E7655F1000254F1000116
:104A500003D5BDE88901BDE80088BDE88901BDE84E
:104A60000048B619524141EB0101A3F1010370471F
:104A700080807F7E7D7C7B7A79787776767574739B
:104A8000727171706F6E6E6D6C6C6B6A6A6968685A
:104A9000676666656464636362616160605F5F5EF0
:104AA0005E5D5D5C5C5B5B5A5A5959585857575666
:104AB00056555555545453535252525151505050CB
:104AC0004F4F4F4E4E4D4D4D4C4C4C4B4B4B4A4A1D
:104AD0004A49494948484847474747464646454561
:104AE000454444444443434343424242424141419A
:104AF0009C46002B30D477002BD04FEA37071CB5EB
:104B000003B44FF010004FF01001BAF1000F06D0BF
:104B1000BCF1000FDCBF40F0080040F008014FF08E
:104B200000000FBCBDE810400BF1010BBBF1010F01
:104B300008BF5FEA170722BF12F1010211F101015C
:104B40004FF0004143F1000300F0004043EA000051
:104B50007047F9D35708D0E746EA06464FEA1646AB
:104B600013F1400F1FDD13F1200FDFBF16430A467C
:104B7000002120335B42BED0C3F1200746EA06463F
:104B80004FEA164602FA07F746EA070622FA03F248
:104B9000C3F1200701FA07F742EA070221FA03F1FD
:104BA0004FF00003A7E746EA020646EA06464FEA48
:104BB000164646EA0106BCBF46EA0646360C4FF0EA
:104BC00000034FF000024FF0000194E72DE9804C04
:104BD00070B49A46934691E8380007C831EA400C11
:104BE00048BF34EA430C03D5FFF7E6FDFFF780FF2B
:104BF000F0BCBDE8008C2DE9804C70B49A46934619
:104C000091E8380007C810F0804F08BF13F0804FBC
:104C100003D100F005F8FFF76BFFF0BCBDE8008C96
:104C200020F07F4723F07F4C80EA030000F0004033
:104C300007EB0C03A3F57C53A3F1FE0392F0000FE6
:104C400000F0B38095F0000F00F077802DE9014966
:104C50004FEA114021EA00484FEA144624EA064789
:104C600000FB06FC08FB06F607FB08F818EB0648F5
:104C70004CEB164C00FB07F718EB07484CEB1740C2
:104C80004FEA124B22EA0B4E4FEA154625EA064739
:104C90000BFB06FC0EFB06F607FB0EFE1EEB064E9C
:104CA0004CEB164C0BFB07F71EEB074E4CEB174B70
:104CB00018EB0B0840F1000018EB0E0B58EB000846
:104CC00040F100008F1A4FF000014FF000063CBF8A
:104CD000C943661B14BFB5EB040C00213CBFC9439C
:104CE000F61B4FEA174427EA04454FEA1C472CEA13
:104CF000074C04FB076205FB07F70CFB05F616EBF8
:104D0000074642EB174204FB0CFC16EB0C4642EB49
:104D10001C421BEB060658EB020241414EEA8E0E86
:104D200046EA9E0601D5BDE80189B619524141EB1C
:104D30000101A3F10103BDE801894FEA144524EA0A
:104D400005464FEA114721EA074C05FB07F406FB2D
:104D500007F70CFB06F111EB074144EB174405FB89
:104D60000CFC11EB0C4144EB1C444FEA124722EAC5
:104D7000074C05FB07F206FB07F70CFB06F616EBE4
:104D8000074642EB174205FB0CFC16EB0C4642EBC8
:104D90001C456A1854F1000148BF7047B6195241CA
:104DA00041EB0101A3F10103704795F0000F37D0EB
:104DB0004FEA114221EA02464FEA144724EA074C1F
:104DC00002FB07F106FB07F70CFB06F414EB0744A4
:104DD00041EB174102FB0CFC14EB0C4441EB1C4172
:104DE0004FEA154725EA074C02FB07F506FB07F7D4
:104DF0000CFB06F616EB074645EB174502FB0CFCD1
:104E000016EB0C4645EB1C42121951F1000148BF4C
:104E10007047B619524141EB0101A3F101037047FC
:104E20004FEA144524EA05464FEA114721EA074CA8
:104E300005FB07F106FB07F70CFB06F212EB074236
:104E400041EB174105FB0CFC12EB0C4251EB1C41F2
:104E50004FF0000648BF7047921841EB0101A3F1E3
:104E600001037047490050EAC12018BF04204A0DD1
:104E700018BF40F0010040F2FF72B2EB515F08BF73
:104E800040F00200012808BF0520704730380A288A
:104E900001D20120704700207047000010B50029A2
:104EA0000AD00878002807D005487844FCF73CFB76
:104EB000002801D0002010BD0248784410BD000039
:104EC0006E0200006602000010B500290AD00878C2
:104ED000002807D005487844FCF726FB002801D0BD
:104EE000002010BD0248784410BD000052030000AD
:104EF0004A030000FBF723BFFCF758B80400000882
:104F0000000000000000000200010000100000008E
:104F100000000000000000003031323334353637F5
:104F200038394142434445464030580030313233ED
:104F300034353637383961626364656640307800ED
:104F400030313233343536373839616263646566FF
:104F50007870003031323334353637383941424396
:104F6000444546585000000002400000000000A0E8
:104F70000000000005400000000000C80000000024
:104F80000C4000000000409C0000000019400000A0
:104F90000020BCBE0000000034400000BFC91B8ED2
:104FA00000000004B5400000504BCFD06607E2CFB0
:104FB000010000006C4100003E8251AADFEEA734E0
:104FC00001000000D9420000DCB5A0E23A301F9792
:104FD000FFFFFFFFB4450000FD25A0C8E9A3C14FB6
:104FE000FFFFFFFFFF3F0000000000800000000007
:104FF000FF3F0000000000800000000000000000F3
:105000000000000001020304060708090000000078
:1050100001020304010202030405060708090A0B42
:105020000C0D0E0F10102441434B2C434D442C45C6
:1050300053544F500D0A002441434B2C434D442CF4
:1050400052455345545F4553544F500D0A00244870
:10505000454C4C4F5F41434B2C53544D33322C4FF6
:105060004B2C676F6F64206A6F620D0A00244E41FB
:10507000434B2C434D442C25732C25730D0A0024DF
:105080004E41434B2C434D442C25732C25752C2528
:10509000730D0A0024504F4E472C256C750D0A00E5
:1050A000494E56414C49440049444C45004E4F4EF0
:1050B000450052554E4E494E470053544F505F4C99
:1050C0004F434B004F4B004E4F5F434152474F0001
:1050D00052455345545F4553544F50004C45465438
:1050E00000524947485400424F4F540053544152D4
:1050F0005400425553590000485200080000002057
:105100001000000050010008585200081000002054
:10511000C0070000700100081001000043000000FB
:10512000F8FFFFFF004040404040404040404141C8
:10513000414141404040404040404040404040406C
:105140004040404040050202020202020202020206
:105150000202020202202020202020202020200203
:105160000202020202029090909090901010101093
:10517000101010101010101010101010101010102F
:1051800002020202020288888888888808080808C3
:10519000080808080808080808080808080808088F
:1051A00002020202400000000000000000000000B7
:1051B00000000000000000000000000000000000EF
:1051C00000000000000000000000000000000000DF
:1051D00000000000000000000000000000000000CF
:1051E00000000000000000000000000000000000BF
:1051F00000000000000000000000000000000000AF
:10520000000000000000000000000000000000009E
:10521000000000000000000000000000000000008E
:1052200000000000000000001C000000430000001F
:10523000F8FFFFFF0C0000000E0000000F00000050
:105240002E0000000000000001000000100000001F
:0852500000127A0000000000CA
:04000005080000ED02
:00000001FF
